{
  "contractName": "InauguralGateKeeper",
  "abi": [
    {
      "constant": true,
      "inputs": [],
      "name": "cfoAddress",
      "outputs": [
        {
          "name": "",
          "type": "address"
        }
      ],
      "payable": false,
      "stateMutability": "view",
      "type": "function"
    },
    {
      "constant": true,
      "inputs": [],
      "name": "ceoAddress",
      "outputs": [
        {
          "name": "",
          "type": "address"
        }
      ],
      "payable": false,
      "stateMutability": "view",
      "type": "function"
    },
    {
      "constant": true,
      "inputs": [],
      "name": "tournament",
      "outputs": [
        {
          "name": "",
          "type": "address"
        }
      ],
      "payable": false,
      "stateMutability": "view",
      "type": "function"
    },
    {
      "constant": false,
      "inputs": [
        {
          "name": "newCfo",
          "type": "address"
        }
      ],
      "name": "setCfo",
      "outputs": [],
      "payable": false,
      "stateMutability": "nonpayable",
      "type": "function"
    },
    {
      "constant": false,
      "inputs": [
        {
          "name": "newCeo",
          "type": "address"
        }
      ],
      "name": "setCeo",
      "outputs": [],
      "payable": false,
      "stateMutability": "nonpayable",
      "type": "function"
    },
    {
      "constant": false,
      "inputs": [
        {
          "name": "newCoo",
          "type": "address"
        }
      ],
      "name": "setCoo",
      "outputs": [],
      "payable": false,
      "stateMutability": "nonpayable",
      "type": "function"
    },
    {
      "constant": true,
      "inputs": [],
      "name": "cooAddress",
      "outputs": [
        {
          "name": "",
          "type": "address"
        }
      ],
      "payable": false,
      "stateMutability": "view",
      "type": "function"
    },
    {
      "constant": true,
      "inputs": [],
      "name": "wizardCosts",
      "outputs": [
        {
          "name": "neutralWizardCost",
          "type": "uint96"
        },
        {
          "name": "elementalWizardCost",
          "type": "uint96"
        },
        {
          "name": "elementalWizardIncrement",
          "type": "uint32"
        }
      ],
      "payable": false,
      "stateMutability": "view",
      "type": "function"
    },
    {
      "inputs": [
        {
          "name": "setCooAddress",
          "type": "address"
        },
        {
          "name": "setCfoAddress",
          "type": "address"
        },
        {
          "name": "setNeutralWizardCost",
          "type": "uint256"
        },
        {
          "name": "setElementalWizardCost",
          "type": "uint256"
        },
        {
          "name": "setElementalWizardIncrement",
          "type": "uint256"
        }
      ],
      "payable": false,
      "stateMutability": "nonpayable",
      "type": "constructor"
    },
    {
      "payable": true,
      "stateMutability": "payable",
      "type": "fallback"
    },
    {
      "anonymous": false,
      "inputs": [
        {
          "indexed": false,
          "name": "previousCeo",
          "type": "address"
        },
        {
          "indexed": false,
          "name": "newCeo",
          "type": "address"
        }
      ],
      "name": "CEOTransferred",
      "type": "event"
    },
    {
      "anonymous": false,
      "inputs": [
        {
          "indexed": false,
          "name": "previousCoo",
          "type": "address"
        },
        {
          "indexed": false,
          "name": "newCoo",
          "type": "address"
        }
      ],
      "name": "COOTransferred",
      "type": "event"
    },
    {
      "anonymous": false,
      "inputs": [
        {
          "indexed": false,
          "name": "previousCfo",
          "type": "address"
        },
        {
          "indexed": false,
          "name": "newCfo",
          "type": "address"
        }
      ],
      "name": "CFOTransferred",
      "type": "event"
    },
    {
      "constant": false,
      "inputs": [
        {
          "name": "setTournament",
          "type": "address"
        }
      ],
      "name": "registerTournament",
      "outputs": [],
      "payable": false,
      "stateMutability": "nonpayable",
      "type": "function"
    },
    {
      "constant": false,
      "inputs": [
        {
          "name": "affinity",
          "type": "uint8"
        }
      ],
      "name": "conjureWizard",
      "outputs": [
        {
          "name": "",
          "type": "uint256"
        }
      ],
      "payable": true,
      "stateMutability": "payable",
      "type": "function"
    },
    {
      "constant": false,
      "inputs": [
        {
          "name": "affinities",
          "type": "uint8[]"
        }
      ],
      "name": "conjureWizardMulti",
      "outputs": [
        {
          "name": "wizardIds",
          "type": "uint256[]"
        }
      ],
      "payable": true,
      "stateMutability": "payable",
      "type": "function"
    },
    {
      "constant": false,
      "inputs": [
        {
          "name": "wizardIds",
          "type": "uint256[]"
        },
        {
          "name": "powers",
          "type": "uint256[]"
        },
        {
          "name": "affinities",
          "type": "uint8[]"
        },
        {
          "name": "owner",
          "type": "address"
        }
      ],
      "name": "conjureExclusiveMulti",
      "outputs": [],
      "payable": true,
      "stateMutability": "payable",
      "type": "function"
    },
    {
      "constant": false,
      "inputs": [
        {
          "name": "wizardIds",
          "type": "uint256[]"
        }
      ],
      "name": "absorbPresaleWizards",
      "outputs": [],
      "payable": false,
      "stateMutability": "nonpayable",
      "type": "function"
    },
    {
      "constant": false,
      "inputs": [
        {
          "name": "wizardId",
          "type": "uint256"
        }
      ],
      "name": "revive",
      "outputs": [],
      "payable": true,
      "stateMutability": "payable",
      "type": "function"
    },
    {
      "constant": false,
      "inputs": [
        {
          "name": "wizardId",
          "type": "uint256"
        },
        {
          "name": "newAffinity",
          "type": "uint8"
        }
      ],
      "name": "setAffinity",
      "outputs": [],
      "payable": false,
      "stateMutability": "nonpayable",
      "type": "function"
    },
    {
      "constant": true,
      "inputs": [
        {
          "name": "cost",
          "type": "uint256"
        }
      ],
      "name": "costToPower",
      "outputs": [
        {
          "name": "power",
          "type": "uint88"
        }
      ],
      "payable": false,
      "stateMutability": "pure",
      "type": "function"
    },
    {
      "constant": true,
      "inputs": [
        {
          "name": "power",
          "type": "uint88"
        }
      ],
      "name": "powerToCost",
      "outputs": [
        {
          "name": "cost",
          "type": "uint256"
        }
      ],
      "payable": false,
      "stateMutability": "pure",
      "type": "function"
    },
    {
      "constant": false,
      "inputs": [],
      "name": "withdraw",
      "outputs": [],
      "payable": false,
      "stateMutability": "nonpayable",
      "type": "function"
    },
    {
      "constant": false,
      "inputs": [],
      "name": "destroy",
      "outputs": [],
      "payable": false,
      "stateMutability": "nonpayable",
      "type": "function"
    }
  ],
  "bytecode": "0x60806040523480156200001157600080fd5b5060405160a08062003fa9833981018060405260a08110156200003357600080fd5b81019080805190602001909291908051906020019092919080519060200190929190805190602001909291908051906020019092919050505084846200008833620001d6640100000000026401000000009004565b620000a282620002d1640100000000026401000000009004565b600073ffffffffffffffffffffffffffffffffffffffff168173ffffffffffffffffffffffffffffffffffffffff1614620000f257620000f181620004ab640100000000026401000000009004565b5b50506040518060600160405280846bffffffffffffffffffffffff168152602001836bffffffffffffffffffffffff1681526020018263ffffffff16815250600560008201518160000160006101000a8154816bffffffffffffffffffffffff02191690836bffffffffffffffffffffffff160217905550602082015181600001600c6101000a8154816bffffffffffffffffffffffff02191690836bffffffffffffffffffffffff16021790555060408201518160000160186101000a81548163ffffffff021916908363ffffffff1602179055509050505050505050620007f0565b7f9d05f170f1d545b1aa21c4a4f79f17ff737f5f020ea1b333d88f29f0bbfa9fc66000809054906101000a900473ffffffffffffffffffffffffffffffffffffffff1682604051808373ffffffffffffffffffffffffffffffffffffffff1673ffffffffffffffffffffffffffffffffffffffff1681526020018273ffffffffffffffffffffffffffffffffffffffff1673ffffffffffffffffffffffffffffffffffffffff1681526020019250505060405180910390a1806000806101000a81548173ffffffffffffffffffffffffffffffffffffffff021916908373ffffffffffffffffffffffffffffffffffffffff16021790555050565b6000809054906101000a900473ffffffffffffffffffffffffffffffffffffffff1673ffffffffffffffffffffffffffffffffffffffff163373ffffffffffffffffffffffffffffffffffffffff161462000394576040517f08c379a00000000000000000000000000000000000000000000000000000000081526004018080602001828103825260088152602001807f4f6e6c792043454f00000000000000000000000000000000000000000000000081525060200191505060405180910390fd5b620003ae8162000685640100000000026401000000009004565b7f1cd3afc04e6ae479d2b9f74533351b52218c5b2ae4f847f681a5eac514fe1184600160009054906101000a900473ffffffffffffffffffffffffffffffffffffffff1682604051808373ffffffffffffffffffffffffffffffffffffffff1673ffffffffffffffffffffffffffffffffffffffff1681526020018273ffffffffffffffffffffffffffffffffffffffff1673ffffffffffffffffffffffffffffffffffffffff1681526020019250505060405180910390a180600160006101000a81548173ffffffffffffffffffffffffffffffffffffffff021916908373ffffffffffffffffffffffffffffffffffffffff16021790555050565b6000809054906101000a900473ffffffffffffffffffffffffffffffffffffffff1673ffffffffffffffffffffffffffffffffffffffff163373ffffffffffffffffffffffffffffffffffffffff16146200056e576040517f08c379a00000000000000000000000000000000000000000000000000000000081526004018080602001828103825260088152602001807f4f6e6c792043454f00000000000000000000000000000000000000000000000081525060200191505060405180910390fd5b620005888162000685640100000000026401000000009004565b7fe1033d3cc535efc343c53636bdc05c52a44d9e70b089d4ad6e974379f2c651d6600260009054906101000a900473ffffffffffffffffffffffffffffffffffffffff1682604051808373ffffffffffffffffffffffffffffffffffffffff1673ffffffffffffffffffffffffffffffffffffffff1681526020018273ffffffffffffffffffffffffffffffffffffffff1673ffffffffffffffffffffffffffffffffffffffff1681526020019250505060405180910390a180600260006101000a81548173ffffffffffffffffffffffffffffffffffffffff021916908373ffffffffffffffffffffffffffffffffffffffff16021790555050565b600073ffffffffffffffffffffffffffffffffffffffff168173ffffffffffffffffffffffffffffffffffffffff16141562000729576040517f08c379a000000000000000000000000000000000000000000000000000000000815260040180806020018281038252601b8152602001807f5a65726f2061636365737320636f6e74726f6c2061646472657373000000000081525060200191505060405180910390fd5b6000809054906101000a900473ffffffffffffffffffffffffffffffffffffffff1673ffffffffffffffffffffffffffffffffffffffff168173ffffffffffffffffffffffffffffffffffffffff161415620007ed576040517f08c379a000000000000000000000000000000000000000000000000000000000815260040180806020018281038252601c8152602001807f43454f20616464726573732063616e6e6f74206265207265757365640000000081525060200191505060405180910390fd5b50565b6137a980620008006000396000f3fe608060405260043610610131576000357c01000000000000000000000000000000000000000000000000000000009004806388975198116100bd578063b047fb5011610081578063b047fb50146106b9578063b83a0c4414610710578063ce6991fd1461078d578063e5a604bf1461089a578063f4038ec71461090357610131565b806388975198146105505780638baecc21146105a157806398d7a414146105cf5780639934d7c3146106175780639986a0c61461066857610131565b80632b81860b116101045780632b81860b146104305780632d46ed561461048c5780633ccfd60b146104dd578063573f322f146104f457806383197ef01461053957610131565b80630519ce79146101e85780630a0f81681461023f5780630cff2fd0146102965780631e0197e2146103d9575b73d8e4c31d8eb7bad28909a3d2e2dca6aacdab156373ffffffffffffffffffffffffffffffffffffffff163373ffffffffffffffffffffffffffffffffffffffff16146101e6576040517f08c379a000000000000000000000000000000000000000000000000000000000815260040180806020018281038252601e8152602001807f446f6e27742073656e642066756e647320746f20476174654b6565706572000081525060200191505060405180910390fd5b005b3480156101f457600080fd5b506101fd610989565b604051808273ffffffffffffffffffffffffffffffffffffffff1673ffffffffffffffffffffffffffffffffffffffff16815260200191505060405180910390f35b34801561024b57600080fd5b506102546109af565b604051808273ffffffffffffffffffffffffffffffffffffffff1673ffffffffffffffffffffffffffffffffffffffff16815260200191505060405180910390f35b6103d7600480360360808110156102ac57600080fd5b81019080803590602001906401000000008111156102c957600080fd5b8201836020820111156102db57600080fd5b803590602001918460208302840111640100000000831117156102fd57600080fd5b90919293919293908035906020019064010000000081111561031e57600080fd5b82018360208201111561033057600080fd5b8035906020019184602083028401116401000000008311171561035257600080fd5b90919293919293908035906020019064010000000081111561037357600080fd5b82018360208201111561038557600080fd5b803590602001918460208302840111640100000000831117156103a757600080fd5b9091929391929390803573ffffffffffffffffffffffffffffffffffffffff1690602001909291905050506109d4565b005b3480156103e557600080fd5b506103ee611285565b604051808273ffffffffffffffffffffffffffffffffffffffff1673ffffffffffffffffffffffffffffffffffffffff16815260200191505060405180910390f35b34801561043c57600080fd5b506104766004803603602081101561045357600080fd5b8101908080356affffffffffffffffffffff1690602001909291905050506112ab565b6040518082815260200191505060405180910390f35b34801561049857600080fd5b506104db600480360360208110156104af57600080fd5b81019080803573ffffffffffffffffffffffffffffffffffffffff1690602001909291905050506112c6565b005b3480156104e957600080fd5b506104f261148e565b005b6105236004803603602081101561050a57600080fd5b81019080803560ff1690602001909291905050506115b1565b6040518082815260200191505060405180910390f35b34801561054557600080fd5b5061054e611635565b005b34801561055c57600080fd5b5061059f6004803603602081101561057357600080fd5b81019080803573ffffffffffffffffffffffffffffffffffffffff16906020019092919050505061192f565b005b6105cd600480360360208110156105b757600080fd5b8101908080359060200190929190505050611a06565b005b3480156105db57600080fd5b50610615600480360360408110156105f257600080fd5b8101908080359060200190929190803560ff169060200190929190505050611c33565b005b34801561062357600080fd5b506106666004803603602081101561063a57600080fd5b81019080803573ffffffffffffffffffffffffffffffffffffffff169060200190929190505050611ed3565b005b34801561067457600080fd5b506106b76004803603602081101561068b57600080fd5b81019080803573ffffffffffffffffffffffffffffffffffffffff1690602001909291905050506123b3565b005b3480156106c557600080fd5b506106ce61257b565b604051808273ffffffffffffffffffffffffffffffffffffffff1673ffffffffffffffffffffffffffffffffffffffff16815260200191505060405180910390f35b34801561071c57600080fd5b506107256125a1565b60405180846bffffffffffffffffffffffff166bffffffffffffffffffffffff168152602001836bffffffffffffffffffffffff166bffffffffffffffffffffffff1681526020018263ffffffff1663ffffffff168152602001935050505060405180910390f35b610843600480360360208110156107a357600080fd5b81019080803590602001906401000000008111156107c057600080fd5b8201836020820111156107d257600080fd5b803590602001918460208302840111640100000000831117156107f457600080fd5b919080806020026020016040519081016040528093929190818152602001838360200280828437600081840152601f19601f8201169050808301925050505050505091929192905050506125f9565b6040518080602001828103825283818151815260200191508051906020019060200280838360005b8381101561088657808201518184015260208101905061086b565b505050509050019250505060405180910390f35b3480156108a657600080fd5b506108d3600480360360208110156108bd57600080fd5b8101908080359060200190929190505050612bc2565b60405180826affffffffffffffffffffff166affffffffffffffffffffff16815260200191505060405180910390f35b34801561090f57600080fd5b506109876004803603602081101561092657600080fd5b810190808035906020019064010000000081111561094357600080fd5b82018360208201111561095557600080fd5b8035906020019184602083028401116401000000008311171561097757600080fd5b9091929391929390505050612bd7565b005b600260009054906101000a900473ffffffffffffffffffffffffffffffffffffffff1681565b6000809054906101000a900473ffffffffffffffffffffffffffffffffffffffff1681565b600160009054906101000a900473ffffffffffffffffffffffffffffffffffffffff1673ffffffffffffffffffffffffffffffffffffffff163373ffffffffffffffffffffffffffffffffffffffff1614610a97576040517f08c379a00000000000000000000000000000000000000000000000000000000081526004018080602001828103825260088152602001807f4f6e6c7920434f4f00000000000000000000000000000000000000000000000081525060200191505060405180910390fd5b8484905087879050148015610ab157508282905085859050145b610b23576040517f08c379a000000000000000000000000000000000000000000000000000000000815260040180806020018281038252601e8152602001807f496e636f6e73697374656e7420706172616d65746572206c656e67746873000081525060200191505060405180910390fd5b60008090506000809050606087879050604051908082528060200260200182016040528015610b615781602001602082028038833980820191505090505b50905060008090505b88889050811015610d3457600460ff16878783818110610b8657fe5b9050602002013560ff1660ff161115610c07576040517f08c379a00000000000000000000000000000000000000000000000000000000081526004018080602001828103825260108152602001807f496e76616c696420616666696e6974790000000000000000000000000000000081525060200191505060405180910390fd5b6b010000000000000000000000898983818110610c2057fe5b9050602002013510610c9a576040517f08c379a00000000000000000000000000000000000000000000000000000000081526004018080602001828103825260138152602001807f496e76616c696420706f776572206c6576656c0000000000000000000000000081525060200191505060405180910390fd5b888882818110610ca657fe5b90506020020135828281518110610cb957fe5b60200260200101906affffffffffffffffffffff1690816affffffffffffffffffffff16815250506000610cff838381518110610cf257fe5b60200260200101516112ab565b90508085019450610d22838381518110610d1557fe5b602002602001015161320b565b84019350508080600101915050610b6a565b5082341015610dab576040517f08c379a00000000000000000000000000000000000000000000000000000000081526004018080602001828103825260128152602001807f496e73756666696369656e742066756e6473000000000000000000000000000081525060200191505060405180910390fd5b73b4acd2c618eb426a8e195cca2194c0903372ac0d73ffffffffffffffffffffffffffffffffffffffff16639d1580238b8b848a8a8a6040518763ffffffff167c0100000000000000000000000000000000000000000000000000000000028152600401808060200180602001806020018573ffffffffffffffffffffffffffffffffffffffff1673ffffffffffffffffffffffffffffffffffffffff16815260200184810384528a8a82818152602001925060200280828437600081840152601f19601f820116905080830192505050848103835288818151815260200191508051906020019060200280838360005b83811015610eb7578082015181840152602081019050610e9c565b505050509050018481038252878782818152602001925060200280828437600081840152601f19601f8201169050808301925050509950505050505050505050600060405180830381600087803b158015610f1157600080fd5b505af1158015610f25573d6000803e3d6000fd5b50505050600360009054906101000a900473ffffffffffffffffffffffffffffffffffffffff1673ffffffffffffffffffffffffffffffffffffffff1663b9d95abb838c8c856040518563ffffffff167c01000000000000000000000000000000000000000000000000000000000281526004018080602001806020018381038352868682818152602001925060200280828437600081840152601f19601f820116905080830192505050838103825284818151815260200191508051906020019060200280838360005b8381101561100b578082015181840152602081019050610ff0565b50505050905001955050505050506000604051808303818588803b15801561103257600080fd5b505af1158015611046573d6000803e3d6000fd5b505050505061105484613226565b156112705760008090505b8a8a905081101561126e5760008573ffffffffffffffffffffffffffffffffffffffff1663150b7a023360008f8f8781811061109757fe5b905060200201356040518463ffffffff167c0100000000000000000000000000000000000000000000000000000000028152600401808473ffffffffffffffffffffffffffffffffffffffff1673ffffffffffffffffffffffffffffffffffffffff1681526020018373ffffffffffffffffffffffffffffffffffffffff1673ffffffffffffffffffffffffffffffffffffffff16815260200182815260200180602001828103825260008152602001602001945050505050602060405180830381600087803b15801561116a57600080fd5b505af115801561117e573d6000803e3d6000fd5b505050506040513d602081101561119457600080fd5b8101908080519060200190929190505050905063150b7a027c0100000000000000000000000000000000000000000000000000000000027bffffffffffffffffffffffffffffffffffffffffffffffffffffffff1916817bffffffffffffffffffffffffffffffffffffffffffffffffffffffff191614611260576040517f08c379a000000000000000000000000000000000000000000000000000000000815260040180806020018281038252602c815260200180613752602c913960400191505060405180910390fd5b50808060010191505061105f565b505b61127983613239565b50505050505050505050565b600360009054906101000a900473ffffffffffffffffffffffffffffffffffffffff1681565b60006103e8826affffffffffffffffffffff16029050919050565b6000809054906101000a900473ffffffffffffffffffffffffffffffffffffffff1673ffffffffffffffffffffffffffffffffffffffff163373ffffffffffffffffffffffffffffffffffffffff1614611388576040517f08c379a00000000000000000000000000000000000000000000000000000000081526004018080602001828103825260088152602001807f4f6e6c792043454f00000000000000000000000000000000000000000000000081525060200191505060405180910390fd5b61139181613298565b7fe1033d3cc535efc343c53636bdc05c52a44d9e70b089d4ad6e974379f2c651d6600260009054906101000a900473ffffffffffffffffffffffffffffffffffffffff1682604051808373ffffffffffffffffffffffffffffffffffffffff1673ffffffffffffffffffffffffffffffffffffffff1681526020018273ffffffffffffffffffffffffffffffffffffffff1673ffffffffffffffffffffffffffffffffffffffff1681526020019250505060405180910390a180600260006101000a81548173ffffffffffffffffffffffffffffffffffffffff021916908373ffffffffffffffffffffffffffffffffffffffff16021790555050565b600260009054906101000a900473ffffffffffffffffffffffffffffffffffffffff1673ffffffffffffffffffffffffffffffffffffffff163373ffffffffffffffffffffffffffffffffffffffff1614611551576040517f08c379a00000000000000000000000000000000000000000000000000000000081526004018080602001828103825260088152602001807f4f6e6c792043464f00000000000000000000000000000000000000000000000081525060200191505060405180910390fd5b3373ffffffffffffffffffffffffffffffffffffffff166108fc3073ffffffffffffffffffffffffffffffffffffffff16319081150290604051600060405180830381858888f193505050501580156115ae573d6000803e3d6000fd5b50565b6000606060016040519080825280602002602001820160405280156115e55781602001602082028038833980820191505090505b50905082816000815181106115f657fe5b602002602001019060ff16908160ff16815250506060611615826125f9565b90508060008151811061162457fe5b602002602001015192505050919050565b600160009054906101000a900473ffffffffffffffffffffffffffffffffffffffff1673ffffffffffffffffffffffffffffffffffffffff163373ffffffffffffffffffffffffffffffffffffffff16146116f8576040517f08c379a00000000000000000000000000000000000000000000000000000000081526004018080602001828103825260088152602001807f4f6e6c7920434f4f00000000000000000000000000000000000000000000000081525060200191505060405180910390fd5b60003073ffffffffffffffffffffffffffffffffffffffff163114611785576040517f08c379a00000000000000000000000000000000000000000000000000000000081526004018080602001828103825260158152602001807f447261696e207468652066756e6473206669727374000000000000000000000081525060200191505060405180910390fd5b600073ffffffffffffffffffffffffffffffffffffffff16600360009054906101000a900473ffffffffffffffffffffffffffffffffffffffff1673ffffffffffffffffffffffffffffffffffffffff1614806118a4575060001515600360009054906101000a900473ffffffffffffffffffffffffffffffffffffffff1673ffffffffffffffffffffffffffffffffffffffff166322f3e2d46040518163ffffffff167c010000000000000000000000000000000000000000000000000000000002815260040160206040518083038186803b15801561186557600080fd5b505afa158015611879573d6000803e3d6000fd5b505050506040513d602081101561188f57600080fd5b81019080805190602001909291905050501515145b611916576040517f08c379a00000000000000000000000000000000000000000000000000000000081526004018080602001828103825260118152602001807f546f75726e616d656e742061637469766500000000000000000000000000000081525060200191505060405180910390fd5b3373ffffffffffffffffffffffffffffffffffffffff16ff5b6000809054906101000a900473ffffffffffffffffffffffffffffffffffffffff1673ffffffffffffffffffffffffffffffffffffffff163373ffffffffffffffffffffffffffffffffffffffff16146119f1576040517f08c379a00000000000000000000000000000000000000000000000000000000081526004018080602001828103825260088152602001807f4f6e6c792043454f00000000000000000000000000000000000000000000000081525060200191505060405180910390fd5b6119fa81613298565b611a0381613401565b50565b8073b4acd2c618eb426a8e195cca2194c0903372ac0d73ffffffffffffffffffffffffffffffffffffffff1663430c208133836040518363ffffffff167c0100000000000000000000000000000000000000000000000000000000028152600401808373ffffffffffffffffffffffffffffffffffffffff1673ffffffffffffffffffffffffffffffffffffffff1681526020018281526020019250505060206040518083038186803b158015611abc57600080fd5b505afa158015611ad0573d6000803e3d6000fd5b505050506040513d6020811015611ae657600080fd5b8101908080519060200190929190505050611b69576040517f08c379a00000000000000000000000000000000000000000000000000000000081526004018080602001828103825260198152602001807f4d7573742062652057697a61726420636f6e74726f6c6c65720000000000000081525060200191505060405180910390fd5b6000611b7434612bc2565b90506000611b818261320b565b9050600360009054906101000a900473ffffffffffffffffffffffffffffffffffffffff1673ffffffffffffffffffffffffffffffffffffffff16638baecc2182866040518363ffffffff167c0100000000000000000000000000000000000000000000000000000000028152600401808281526020019150506000604051808303818588803b158015611c1457600080fd5b505af1158015611c28573d6000803e3d6000fd5b505050505050505050565b8173b4acd2c618eb426a8e195cca2194c0903372ac0d73ffffffffffffffffffffffffffffffffffffffff1663430c208133836040518363ffffffff167c0100000000000000000000000000000000000000000000000000000000028152600401808373ffffffffffffffffffffffffffffffffffffffff1673ffffffffffffffffffffffffffffffffffffffff1681526020018281526020019250505060206040518083038186803b158015611ce957600080fd5b505afa158015611cfd573d6000803e3d6000fd5b505050506040513d6020811015611d1357600080fd5b8101908080519060200190929190505050611d96576040517f08c379a00000000000000000000000000000000000000000000000000000000081526004018080602001828103825260198152602001807f4d7573742062652057697a61726420636f6e74726f6c6c65720000000000000081525060200191505060405180910390fd5b600060ff168260ff16118015611db35750600460ff168260ff1611155b611e25576040517f08c379a000000000000000000000000000000000000000000000000000000000815260040180806020018281038252601c8152602001807f4d7573742063686f6f736520612076616c696420616666696e6974790000000081525060200191505060405180910390fd5b73b4acd2c618eb426a8e195cca2194c0903372ac0d73ffffffffffffffffffffffffffffffffffffffff166398d7a41484846040518363ffffffff167c0100000000000000000000000000000000000000000000000000000000028152600401808381526020018260ff1660ff16815260200192505050600060405180830381600087803b158015611eb657600080fd5b505af1158015611eca573d6000803e3d6000fd5b50505050505050565b600160009054906101000a900473ffffffffffffffffffffffffffffffffffffffff1673ffffffffffffffffffffffffffffffffffffffff163373ffffffffffffffffffffffffffffffffffffffff1614611f96576040517f08c379a00000000000000000000000000000000000000000000000000000000081526004018080602001828103825260088152602001807f4f6e6c7920434f4f00000000000000000000000000000000000000000000000081525060200191505060405180910390fd5b600073ffffffffffffffffffffffffffffffffffffffff16600360009054906101000a900473ffffffffffffffffffffffffffffffffffffffff1673ffffffffffffffffffffffffffffffffffffffff161461205a576040517f08c379a000000000000000000000000000000000000000000000000000000000815260040180806020018281038252601d8152602001807f546f75726e616d656e7420616c7265616479207265676973746572656400000081525060200191505060405180910390fd5b80600360006101000a81548173ffffffffffffffffffffffffffffffffffffffff021916908373ffffffffffffffffffffffffffffffffffffffff160217905550600073ffffffffffffffffffffffffffffffffffffffff168173ffffffffffffffffffffffffffffffffffffffff16141580156121ff5750600360009054906101000a900473ffffffffffffffffffffffffffffffffffffffff1673ffffffffffffffffffffffffffffffffffffffff166301ffc9a763bd0590987c0100000000000000000000000000000000000000000000000000000000026040518263ffffffff167c010000000000000000000000000000000000000000000000000000000002815260040180827bffffffffffffffffffffffffffffffffffffffffffffffffffffffff19167bffffffffffffffffffffffffffffffffffffffffffffffffffffffff1916815260200191505060206040518083038186803b1580156121c357600080fd5b505afa1580156121d7573d6000803e3d6000fd5b505050506040513d60208110156121ed57600080fd5b81019080805190602001909291905050505b612271576040517f08c379a00000000000000000000000000000000000000000000000000000000081526004018080602001828103825260128152602001807f496e76616c696420546f75726e616d656e74000000000000000000000000000081525060200191505060405180910390fd5b600360009054906101000a900473ffffffffffffffffffffffffffffffffffffffff1673ffffffffffffffffffffffffffffffffffffffff1663ad81e4d66040518163ffffffff167c010000000000000000000000000000000000000000000000000000000002815260040160206040518083038186803b1580156122f557600080fd5b505afa158015612309573d6000803e3d6000fd5b505050506040513d602081101561231f57600080fd5b81019080805190602001909291905050506004819055506103e860045411156123b0576040517f08c379a00000000000000000000000000000000000000000000000000000000081526004018080602001828103825260148152602001807f506f776572207363616c6520746f6f206869676800000000000000000000000081525060200191505060405180910390fd5b50565b6000809054906101000a900473ffffffffffffffffffffffffffffffffffffffff1673ffffffffffffffffffffffffffffffffffffffff163373ffffffffffffffffffffffffffffffffffffffff1614612475576040517f08c379a00000000000000000000000000000000000000000000000000000000081526004018080602001828103825260088152602001807f4f6e6c792043454f00000000000000000000000000000000000000000000000081525060200191505060405180910390fd5b61247e81613298565b7f1cd3afc04e6ae479d2b9f74533351b52218c5b2ae4f847f681a5eac514fe1184600160009054906101000a900473ffffffffffffffffffffffffffffffffffffffff1682604051808373ffffffffffffffffffffffffffffffffffffffff1673ffffffffffffffffffffffffffffffffffffffff1681526020018273ffffffffffffffffffffffffffffffffffffffff1673ffffffffffffffffffffffffffffffffffffffff1681526020019250505060405180910390a180600160006101000a81548173ffffffffffffffffffffffffffffffffffffffff021916908373ffffffffffffffffffffffffffffffffffffffff16021790555050565b600160009054906101000a900473ffffffffffffffffffffffffffffffffffffffff1681565b60058060000160009054906101000a90046bffffffffffffffffffffffff169080600001600c9054906101000a90046bffffffffffffffffffffffff16908060000160189054906101000a900463ffffffff16905083565b60606000806060612609856134fc565b92509250925082341015612685576040517f08c379a00000000000000000000000000000000000000000000000000000000081526004018080602001828103825260128152602001807f496e73756666696369656e742066756e6473000000000000000000000000000081525060200191505060405180910390fd5b73b4acd2c618eb426a8e195cca2194c0903372ac0d73ffffffffffffffffffffffffffffffffffffffff166355fdbeec8287336040518463ffffffff167c01000000000000000000000000000000000000000000000000000000000281526004018080602001806020018473ffffffffffffffffffffffffffffffffffffffff1673ffffffffffffffffffffffffffffffffffffffff168152602001838103835286818151815260200191508051906020019060200280838360005b8381101561275c578082015181840152602081019050612741565b50505050905001838103825285818151815260200191508051906020019060200280838360005b8381101561279e578082015181840152602081019050612783565b5050505090500195505050505050600060405180830381600087803b1580156127c657600080fd5b505af11580156127da573d6000803e3d6000fd5b505050506040513d6000823e3d601f19601f82011682018060405250602081101561280457600080fd5b81019080805164010000000081111561281c57600080fd5b8281019050602081018481111561283257600080fd5b815185602082028301116401000000008211171561284f57600080fd5b50509291905050509350600360009054906101000a900473ffffffffffffffffffffffffffffffffffffffff1673ffffffffffffffffffffffffffffffffffffffff1663b9d95abb8386846040518463ffffffff167c0100000000000000000000000000000000000000000000000000000000028152600401808060200180602001838103835285818151815260200191508051906020019060200280838360005b8381101561290c5780820151818401526020810190506128f1565b50505050905001838103825284818151815260200191508051906020019060200280838360005b8381101561294e578082015181840152602081019050612933565b505050509050019450505050506000604051808303818588803b15801561297457600080fd5b505af1158015612988573d6000803e3d6000fd5b505050505061299633613226565b15612bb15760008090505b8451811015612baf5760003373ffffffffffffffffffffffffffffffffffffffff1663150b7a023360008986815181106129d757fe5b60200260200101516040518463ffffffff167c0100000000000000000000000000000000000000000000000000000000028152600401808473ffffffffffffffffffffffffffffffffffffffff1673ffffffffffffffffffffffffffffffffffffffff1681526020018373ffffffffffffffffffffffffffffffffffffffff1673ffffffffffffffffffffffffffffffffffffffff16815260200182815260200180602001828103825260008152602001602001945050505050602060405180830381600087803b158015612aab57600080fd5b505af1158015612abf573d6000803e3d6000fd5b505050506040513d6020811015612ad557600080fd5b8101908080519060200190929190505050905063150b7a027c0100000000000000000000000000000000000000000000000000000000027bffffffffffffffffffffffffffffffffffffffffffffffffffffffff1916817bffffffffffffffffffffffffffffffffffffffffffffffffffffffff191614612ba1576040517f08c379a000000000000000000000000000000000000000000000000000000000815260040180806020018281038252602c815260200180613752602c913960400191505060405180910390fd5b5080806001019150506129a1565b505b612bba83613239565b505050919050565b60006103e88281612bcf57fe5b049050919050565b606080606073d8e4c31d8eb7bad28909a3d2e2dca6aacdab156373ffffffffffffffffffffffffffffffffffffffff1663476c4a5e86866040518363ffffffff167c010000000000000000000000000000000000000000000000000000000002815260040180806020018281038252848482818152602001925060200280828437600081840152601f19601f8201169050808301925050509350505050600060405180830381600087803b158015612c8e57600080fd5b505af1158015612ca2573d6000803e3d6000fd5b505050506040513d6000823e3d601f19601f820116820180604052506060811015612ccc57600080fd5b810190808051640100000000811115612ce457600080fd5b82810190506020810184811115612cfa57600080fd5b8151856020820283011164010000000082111715612d1757600080fd5b50509291906020018051640100000000811115612d3357600080fd5b82810190506020810184811115612d4957600080fd5b8151856020820283011164010000000082111715612d6657600080fd5b50509291906020018051640100000000811115612d8257600080fd5b82810190506020810184811115612d9857600080fd5b8151856020820283011164010000000082111715612db557600080fd5b50509291905050509250925092506000809050600084600081518110612dd757fe5b6020026020010151905060608451604051908082528060200260200182016040528015612e135781602001602082028038833980820191505090505b50905060008090505b8551811015612f4e578273ffffffffffffffffffffffffffffffffffffffff16878281518110612e4857fe5b602002602001015173ffffffffffffffffffffffffffffffffffffffff1614612ed9576040517f08c379a00000000000000000000000000000000000000000000000000000000081526004018080602001828103825260208152602001807f416c6c2057697a61726473206d75737420686176652073616d65206f776e657281525060200191505060405180910390fd5b858181518110612ee557fe5b6020026020010151828281518110612ef957fe5b60200260200101906affffffffffffffffffffff1690816affffffffffffffffffffff1681525050612f3d828281518110612f3057fe5b602002602001015161320b565b840193508080600101915050612e1c565b5073b4acd2c618eb426a8e195cca2194c0903372ac0d73ffffffffffffffffffffffffffffffffffffffff16639d15802389898488876040518663ffffffff167c0100000000000000000000000000000000000000000000000000000000028152600401808060200180602001806020018573ffffffffffffffffffffffffffffffffffffffff1673ffffffffffffffffffffffffffffffffffffffff1681526020018481038452898982818152602001925060200280828437600081840152601f19601f820116905080830192505050848103835287818151815260200191508051906020019060200280838360005b8381101561305a57808201518184015260208101905061303f565b50505050905001848103825286818151815260200191508051906020019060200280838360005b8381101561309c578082015181840152602081019050613081565b5050505090500198505050505050505050600060405180830381600087803b1580156130c757600080fd5b505af11580156130db573d6000803e3d6000fd5b50505050600360009054906101000a900473ffffffffffffffffffffffffffffffffffffffff1673ffffffffffffffffffffffffffffffffffffffff1663b9d95abb848a8a856040518563ffffffff167c01000000000000000000000000000000000000000000000000000000000281526004018080602001806020018381038352868682818152602001925060200280828437600081840152601f19601f820116905080830192505050838103825284818151815260200191508051906020019060200280838360005b838110156131c15780820151818401526020810190506131a6565b50505050905001955050505050506000604051808303818588803b1580156131e857600080fd5b505af11580156131fc573d6000803e3d6000fd5b50505050505050505050505050565b6000600454826affffffffffffffffffffff16029050919050565b600080823b905060008111915050919050565b600081340390506125e43a02811115613294573373ffffffffffffffffffffffffffffffffffffffff166108fc829081150290604051600060405180830381858888f19350505050158015613292573d6000803e3d6000fd5b505b5050565b600073ffffffffffffffffffffffffffffffffffffffff168173ffffffffffffffffffffffffffffffffffffffff16141561333b576040517f08c379a000000000000000000000000000000000000000000000000000000000815260040180806020018281038252601b8152602001807f5a65726f2061636365737320636f6e74726f6c2061646472657373000000000081525060200191505060405180910390fd5b6000809054906101000a900473ffffffffffffffffffffffffffffffffffffffff1673ffffffffffffffffffffffffffffffffffffffff168173ffffffffffffffffffffffffffffffffffffffff1614156133fe576040517f08c379a000000000000000000000000000000000000000000000000000000000815260040180806020018281038252601c8152602001807f43454f20616464726573732063616e6e6f74206265207265757365640000000081525060200191505060405180910390fd5b50565b7f9d05f170f1d545b1aa21c4a4f79f17ff737f5f020ea1b333d88f29f0bbfa9fc66000809054906101000a900473ffffffffffffffffffffffffffffffffffffffff1682604051808373ffffffffffffffffffffffffffffffffffffffff1673ffffffffffffffffffffffffffffffffffffffff1681526020018273ffffffffffffffffffffffffffffffffffffffff1673ffffffffffffffffffffffffffffffffffffffff1681526020019250505060405180910390a1806000806101000a81548173ffffffffffffffffffffffffffffffffffffffff021916908373ffffffffffffffffffffffffffffffffffffffff16021790555050565b60008060606000600560000160009054906101000a90046bffffffffffffffffffffffff166bffffffffffffffffffffffff16905060006005600001600c9054906101000a90046bffffffffffffffffffffffff166bffffffffffffffffffffffff1690506000600560000160189054906101000a900463ffffffff1663ffffffff169050600095506000945086516040519080825280602002602001820160405280156135b95781602001602082028038833980820191505090505b50935060008090505b87518110156137125760008882815181106135d957fe5b6020026020010151905060008060ff168260ff161180156136015750600460ff168260ff1611155b613673576040517f08c379a00000000000000000000000000000000000000000000000000000000081526004018080602001828103825260108152602001807f496e76616c696420616666696e6974790000000000000000000000000000000081525060200191505060405180910390fd5b600160ff168260ff16141561368a578590506136a1565b849050620186a08486028161369b57fe5b04850194505b6136aa81612bc2565b8784815181106136b657fe5b60200260200101906affffffffffffffffffffff1690816affffffffffffffffffffff16815250506136fa8784815181106136ed57fe5b602002602001015161320b565b880197508089019850505080806001019150506135c2565b50816005600001600c6101000a8154816bffffffffffffffffffffffff02191690836bffffffffffffffffffffffff160217905550505050919390925056fe436f6e7472616374206f776e6572206469646e27742061636365707420455243373231207472616e73666572a165627a7a72305820d061b61cca095e4d46a36df535bea2b6ca6282f42bce3b4bfefc39ed613d09df0029",
  "source": "pragma solidity >=0.5.6 <0.6.0;\n\n/// @title Shared constants used throughout the Cheeze Wizards contracts\ncontract WizardConstants {\n    // Wizards normally have their affinity set when they are first created,\n    // but for example Exclusive Wizards can be created with no set affinity.\n    // In this case the affinity can be set by the owner.\n    uint8 internal constant ELEMENT_NOTSET = 0; //000\n    // A neutral Wizard has no particular strength or weakness with specific\n    // elements.\n    uint8 internal constant ELEMENT_NEUTRAL = 1; //001\n    // The fire, water and wind elements are used both to reflect an affinity\n    // of Elemental Wizards for a specific element, and as the moves a\n    // Wizard can make during a duel.\n    // Note thta if these values change then `moveMask` and `moveDelta` in\n    // ThreeAffinityDuelResolver would need to be updated accordingly.\n    uint8 internal constant ELEMENT_FIRE = 2; //010\n    uint8 internal constant ELEMENT_WATER = 3; //011\n    uint8 internal constant ELEMENT_WIND = 4; //100\n    uint8 internal constant MAX_ELEMENT = ELEMENT_WIND;\n}\n\n\n\n\n\n\n\n\n/**\n * @title IERC165\n * @dev https://eips.ethereum.org/EIPS/eip-165\n */\ninterface IERC165 {\n    /**\n     * @notice Query if a contract implements an interface\n     * @param interfaceId The interface identifier, as specified in ERC-165\n     * @dev Interface identification is specified in ERC-165. This function\n     * uses less than 30,000 gas.\n     */\n    function supportsInterface(bytes4 interfaceId) external view returns (bool);\n}\n\n\n/**\n * @title ERC721 Non-Fungible Token Standard basic interface\n * @dev see https://eips.ethereum.org/EIPS/eip-721\n */\ncontract IERC721 is IERC165 {\n    event Transfer(address indexed from, address indexed to, uint256 indexed tokenId);\n    event Approval(address indexed owner, address indexed approved, uint256 indexed tokenId);\n    event ApprovalForAll(address indexed owner, address indexed operator, bool approved);\n\n    function balanceOf(address owner) public view returns (uint256 balance);\n    function ownerOf(uint256 tokenId) public view returns (address owner);\n\n    function approve(address to, uint256 tokenId) public;\n    function getApproved(uint256 tokenId) public view returns (address operator);\n\n    function setApprovalForAll(address operator, bool _approved) public;\n    function isApprovedForAll(address owner, address operator) public view returns (bool);\n\n    function transferFrom(address from, address to, uint256 tokenId) public;\n    function safeTransferFrom(address from, address to, uint256 tokenId) public;\n\n    function safeTransferFrom(address from, address to, uint256 tokenId, bytes memory data) public;\n}\n\n\ncontract WizardGuildInterfaceId {\n    bytes4 internal constant _INTERFACE_ID_WIZARDGUILD = 0x41d4d437;\n}\n\n/// @title The public interface of the Wizard Guild\n/// @notice The methods listed in this interface (including the inherited ERC-721 interface),\n///         make up the public interface of the Wizard Guild contract. Any contracts that wish\n///         to make use of Cheeze Wizard NFTs (such as Cheeze Wizards Tournaments!) should use\n///         these methods to ensure they are working correctly with the base NFTs.\ncontract WizardGuildInterface is IERC721, WizardGuildInterfaceId {\n\n    /// @notice Returns the information associated with the given Wizard\n    ///         owner - The address that owns this Wizard\n    ///         innatePower - The innate power level of this Wizard, set when minted and entirely\n    ///               immutable\n    ///         affinity - The Elemental Affinity of this Wizard. For most Wizards, this is set\n    ///               when they are minted, but some exclusive Wizards are minted with an affinity\n    ///               of 0 (ELEMENT_NOTSET). A Wizard with an NOTSET affinity should NOT be able\n    ///               to participate in Tournaments. Once the affinity of a Wizard is set to a non-zero\n    ///               value, it can never be changed again.\n    ///         metadata - A 256-bit hash of the Wizard's metadata, which is stored off chain. This\n    ///               contract doesn't specify format of this hash, nor the off-chain storage mechanism\n    ///               but, let's be honest, it's probably an IPFS SHA-256 hash.\n    ///\n    ///         NOTE: Series zero Wizards have one of four Affinities:  Neutral (1), Fire (2), Water (3)\n    ///               or Air (4, sometimes called \"Wind\" in the code). Future Wizard Series may have\n    ///               additional Affinities, and clients of this API should be prepared for that\n    ///               eventuality.\n    function getWizard(uint256 id) external view returns (address owner, uint88 innatePower, uint8 affinity, bytes32 metadata);\n\n    /// @notice Sets the affinity for a Wizard that doesn't already have its elemental affinity chosen.\n    ///         Only usable for Exclusive Wizards (all non-Exclusives must have their affinity chosen when\n    ///         conjured.) Even Exclusives can't change their affinity once it's been chosen.\n    ///\n    ///         NOTE: This function can only be called by the series minter, and (therefore) only while the\n    ///         series is open. A Wizard that has no affinity when a series is closed will NEVER have an Affinity.\n    ///         BTW- This implies that a minter is responsible for either never minting ELEMENT_NOTSET\n    ///         Wizards, or having some public mechanism for a Wizard owner to set the Affinity after minting.\n    /// @param wizardId The id of the wizard\n    /// @param newAffinity The new affinity of the wizard\n    function setAffinity(uint256 wizardId, uint8 newAffinity) external;\n\n    /// @notice A function to be called that conjures a whole bunch of Wizards at once! You know how\n    ///         there's \"a pride of lions\", \"a murder of crows\", and \"a parliament of owls\"? Well, with this\n    ///         here function you can conjure yourself \"a stench of Cheeze Wizards\"!\n    ///\n    ///         Unsurprisingly, this method can only be called by the registered minter for a Series.\n    /// @param powers the power level of each wizard\n    /// @param affinities the Elements of the wizards to create\n    /// @param owner the address that will own the newly created Wizards\n    function mintWizards(\n        uint88[] calldata powers,\n        uint8[] calldata affinities,\n        address owner\n        ) external returns (uint256[] memory wizardIds);\n\n    /// @notice A function to be called that conjures a series of Wizards in the reserved ID range.\n    /// @param wizardIds the ID values to use for each Wizard, must be in the reserved range of the current Series\n    /// @param affinities the Elements of the wizards to create\n    /// @param powers the power level of each wizard\n    /// @param owner the address that will own the newly created Wizards\n    function mintReservedWizards(\n        uint256[] calldata wizardIds,\n        uint88[] calldata powers,\n        uint8[] calldata affinities,\n        address owner\n        ) external;\n\n    /// @notice Sets the metadata values for a list of Wizards. The metadata for a Wizard can only be set once,\n    ///         can only be set by the COO or Minter, and can only be set while the Series is still open. Once\n    ///         a Series is closed, the metadata is locked forever!\n    /// @param wizardIds the ID values of the Wizards to apply metadata changes to.\n    /// @param metadata the raw metadata values for each Wizard. This contract does not define how metadata\n    ///         should be interpreted, but it is likely to be a 256-bit hash of a complete metadata package\n    ///         accessible via IPFS or similar.\n    function setMetadata(uint256[] calldata wizardIds, bytes32[] calldata metadata) external;\n\n    /// @notice Returns true if the given \"spender\" address is allowed to manipulate the given token\n    ///         (either because it is the owner of that token, has been given approval to manage that token)\n    function isApprovedOrOwner(address spender, uint256 tokenId) external view returns (bool);\n\n    /// @notice Verifies that a given signature represents authority to control the given Wizard ID,\n    ///         reverting otherwise. It handles three cases:\n    ///             - The simplest case: The signature was signed with the private key associated with\n    ///               an external address that is the owner of this Wizard.\n    ///             - The signature was generated with the private key associated with an external address\n    ///               that is \"approved\" for working with this Wizard ID. (See the Wizard Guild and/or\n    ///               the ERC-721 spec for more information on \"approval\".)\n    ///             - The owner or approval address (as in cases one or two) is a smart contract\n    ///               that conforms to ERC-1654, and accepts the given signature as being valid\n    ///               using its own internal logic.\n    ///\n    ///        NOTE: This function DOES NOT accept a signature created by an address that was given \"operator\n    ///               status\" (as granted by ERC-721's setApprovalForAll() functionality). Doing so is\n    ///               considered an extreme edge case that can be worked around where necessary.\n    /// @param wizardId The Wizard ID whose control is in question\n    /// @param hash The message hash we are authenticating against\n    /// @param sig the signature data; can be longer than 65 bytes for ERC-1654\n    function verifySignature(uint256 wizardId, bytes32 hash, bytes calldata sig) external view;\n\n    /// @notice Convienence function that verifies signatures for two wizards using equivalent logic to\n    ///         verifySignature(). Included to save on cross-contract calls in the common case where we\n    ///         are verifying the signatures of two Wizards who wish to enter into a Duel.\n    /// @param wizardId1 The first Wizard ID whose control is in question\n    /// @param wizardId2 The second Wizard ID whose control is in question\n    /// @param hash1 The message hash we are authenticating against for the first Wizard\n    /// @param hash2 The message hash we are authenticating against for the first Wizard\n    /// @param sig1 the signature data corresponding to the first Wizard; can be longer than 65 bytes for ERC-1654\n    /// @param sig2 the signature data corresponding to the second Wizard; can be longer than 65 bytes for ERC-1654\n    function verifySignatures(\n        uint256 wizardId1,\n        uint256 wizardId2,\n        bytes32 hash1,\n        bytes32 hash2,\n        bytes calldata sig1,\n        bytes calldata sig2) external view;\n}\n\n\n\n\n\n\n/// @title ERC165Interface\n/// @dev https://eips.ethereum.org/EIPS/eip-165\ninterface ERC165Interface {\n    /// @notice Query if a contract implements an interface\n    /// @param interfaceId The interface identifier, as specified in ERC-165\n    /// @dev Interface identification is specified in ERC-165. This function\n    ///      uses less than 30,000 gas.\n    function supportsInterface(bytes4 interfaceId) external view returns (bool);\n}\n\n// This is kind of a hacky way to expose this constant, but it's the best that Solidity offers!\ncontract TournamentInterfaceId {\n    bytes4 internal constant _INTERFACE_ID_TOURNAMENT = 0xbd059098;\n}\n\n/// @title Tournament interface, known to GateKeeper\ncontract TournamentInterface is TournamentInterfaceId, ERC165Interface {\n\n    // function enter(uint256 tokenId, uint96 power, uint8 affinity) external payable;\n    function revive(uint256 wizardId) external payable;\n\n    function enterWizards(uint256[] calldata wizardIds, uint88[] calldata powers) external payable;\n\n    // Returns true if the Tournament is currently running and active.\n    function isActive() external view returns (bool);\n\n    function powerScale() external view returns (uint256);\n}\n\n\n\n/// @title Contract that manages addresses and access modifiers for certain operations.\n/// @author Dapper Labs Inc. (https://www.dapperlabs.com)\ncontract AccessControl {\n\n    /// @dev The address of the master administrator account that has the power to\n    ///      update itself and all of the other administrator addresses.\n    ///      The CEO account is not expected to be used regularly, and is intended to\n    ///      be stored offline (i.e. a hardware device kept in a safe).\n    address public ceoAddress;\n\n    /// @dev The address of the \"day-to-day\" operator of various priviledged\n    ///      functions inside the smart contract. Although the CEO has the power\n    ///      to replace the COO, the CEO address doesn't actually have the power\n    ///      to do \"COO-only\" operations. This is to discourage the regular use\n    ///      of the CEO account.\n    address public cooAddress;\n\n    /// @dev The address that is allowed to move money around. Kept seperate from\n    ///      the COO because the COO address typically lives on an internet-connected\n    ///      computer.\n    address payable public cfoAddress;\n\n    // Events to indicate when access control role addresses are updated.\n    event CEOTransferred(address previousCeo, address newCeo);\n    event COOTransferred(address previousCoo, address newCoo);\n    event CFOTransferred(address previousCfo, address newCfo);\n\n    /// @dev The AccessControl constructor sets the `ceoAddress` to the sender account. Also\n    ///      initializes the COO and CFO to the passed values (CFO is optional and can be address(0)).\n    /// @param newCooAddress The initial COO address to set\n    /// @param newCfoAddress The initial CFO to set (optional)\n    constructor(address newCooAddress, address payable newCfoAddress) public {\n        _setCeo(msg.sender);\n        setCoo(newCooAddress);\n\n        if (newCfoAddress != address(0)) {\n            setCfo(newCfoAddress);\n        }\n    }\n\n    /// @notice Access modifier for CEO-only functionality\n    modifier onlyCEO() {\n        require(msg.sender == ceoAddress, \"Only CEO\");\n        _;\n    }\n\n    /// @notice Access modifier for COO-only functionality\n    modifier onlyCOO() {\n        require(msg.sender == cooAddress, \"Only COO\");\n        _;\n    }\n\n    /// @notice Access modifier for CFO-only functionality\n    modifier onlyCFO() {\n        require(msg.sender == cfoAddress, \"Only CFO\");\n        _;\n    }\n    \n    function checkControlAddress(address newController) internal view {\n        require(newController != address(0), \"Zero access control address\");\n        require(newController != ceoAddress, \"CEO address cannot be reused\");\n    }\n\n    /// @notice Assigns a new address to act as the CEO. Only available to the current CEO.\n    /// @param newCeo The address of the new CEO\n    function setCeo(address newCeo) external onlyCEO {\n        checkControlAddress(newCeo);\n        _setCeo(newCeo);\n    }\n\n    /// @dev An internal utility function that updates the CEO variable and emits the\n    ///      transfer event. Used from both the public setCeo function and the constructor.\n    function _setCeo(address newCeo) private {\n        emit CEOTransferred(ceoAddress, newCeo);\n        ceoAddress = newCeo;\n    }\n\n    /// @notice Assigns a new address to act as the COO. Only available to the current CEO.\n    /// @param newCoo The address of the new COO\n    function setCoo(address newCoo) public onlyCEO {\n        checkControlAddress(newCoo);\n        emit COOTransferred(cooAddress, newCoo);\n        cooAddress = newCoo;\n    }\n\n    /// @notice Assigns a new address to act as the CFO. Only available to the current CEO.\n    /// @param newCfo The address of the new CFO\n    function setCfo(address payable newCfo) public onlyCEO {\n        checkControlAddress(newCfo);\n        emit CFOTransferred(cfoAddress, newCfo);\n        cfoAddress = newCfo;\n    }\n}\n\n\n\n\n/// @title WizardPresaleInterface\n/// @notice This interface represents the single method that the final tournament and master Wizard contracts\n///         will use to import the presale wizards when those contracts have been finalized a released on\n///         mainnet. Once all presale Wizards have been absorbed, this temporary pre-sale contract can be\n///         destroyed.\ncontract WizardPresaleInterface {\n\n    // See https://github.com/ethereum/EIPs/blob/master/EIPS/eip-165.md on how\n    // to calculate this\n    bytes4 public constant _INTERFACE_ID_WIZARDPRESALE = 0x4df71efb;\n\n    /// @notice This function is used to bring a presale Wizard into the final contracts. It can\n    ///         ONLY be called by the official gatekeeper contract (as set by the Owner of the presale\n    ///         contract). It does a number of things:\n    ///            1. Check that the presale Wizard exists, and has not already been absorbed\n    ///            2. Transfer the Eth used to create the presale Wizard to the caller\n    ///            3. Mark the Wizard as having been absorbed, reclaiming the storage used by the presale info\n    ///            4. Return the Wizard information (its owner, minting price, and elemental alignment)\n    /// @param id the id of the presale Wizard to be absorbed\n    function absorbWizard(uint256 id) external returns (address owner, uint256 power, uint8 affinity);\n\n    /// @notice A convenience function that allows multiple Wizards to be moved to the final contracts\n    ///         simultaneously, works the same as the previous function, but in a batch.\n    /// @param ids An array of ids indicating which presale Wizards are to be absorbed\n    function absorbWizardMulti(uint256[] calldata ids) external\n        returns (address[] memory owners, uint256[] memory powers, uint8[] memory affinities);\n\n    function powerToCost(uint256 power) public pure returns (uint256 cost);\n    function costToPower(uint256 cost) public pure returns (uint256 power);\n}\n\n\n\n\n/**\n * @title ERC721 token receiver interface\n * @dev Interface for any contract that wants to support safeTransfers\n * from ERC721 asset contracts.\n */\ncontract IERC721Receiver {\n    /**\n     * @notice Handle the receipt of an NFT\n     * @dev The ERC721 smart contract calls this function on the recipient\n     * after a `safeTransfer`. This function MUST return the function selector,\n     * otherwise the caller will revert the transaction. The selector to be\n     * returned can be obtained as `this.onERC721Received.selector`. This\n     * function MAY throw to revert and reject the transfer.\n     * Note: the ERC721 contract address is always the message sender.\n     * @param operator The address which called `safeTransferFrom` function\n     * @param from The address which previously owned the token\n     * @param tokenId The NFT identifier which is being transferred\n     * @param data Additional data with no specified format\n     * @return bytes4 `bytes4(keccak256(\"onERC721Received(address,address,uint256,bytes)\"))`\n     */\n    function onERC721Received(address operator, address from, uint256 tokenId, bytes memory data)\n    public returns (bytes4);\n}\n\n\n\n/// Utility library of inline functions on address payables.\n/// Modified from original by OpenZeppelin.\ncontract Address {\n    /// @notice Returns whether the target address is a contract.\n    /// @dev This function will return false if invoked during the constructor of a contract,\n    /// as the code is not actually created until after the constructor finishes.\n    /// @param account address of the account to check\n    /// @return whether the target address is a contract\n    function isContract(address account) internal view returns (bool) {\n        uint256 size;\n        // XXX Currently there is no better way to check if there is a contract in an address\n        // than to check the size of the code at that address.\n        // See https://ethereum.stackexchange.com/a/14016/36603\n        // for more details about how this works.\n        // TODO Check this again before the Serenity release, because all addresses will be\n        // contracts then.\n        // solhint-disable-next-line no-inline-assembly\n        assembly { size := extcodesize(account) } // solium-disable-line security/no-inline-assembly\n        return size > 0;\n    }\n}\n\n\n/// @title The Inaugural Cheeze Wizards Gate Keeper contract\n/// @notice The GateKeeper is responsible for determining which Wizards are allowed to enter into\n///         a Tournament. This particular GateKeeper is designed to manage the first, official\n///         Cheeze Wizards Tournament! It's much more complicated than a typical GateKeeper\n///         implementation because it needs to juggle two additional issues that most GateKeepers\n///         don't need to deal with: Importing Wizards from the Presale contract and minting tokens\n///         to represent newly conjured Wizards.\ncontract InauguralGateKeeper is AccessControl, WizardConstants, Address, WizardGuildInterfaceId, TournamentInterfaceId {\n    // The Tournament contract.\n    TournamentInterface public tournament;\n\n    // The Wizard guild contract.\n    // TODO: Replace with the address of the contract once it's deployed.\n    WizardGuildInterface internal constant wizardGuild = WizardGuildInterface(address(0xb4aCd2c618EB426a8E195cCA2194c0903372AC0d));\n\n    // The Wizard presale contract.\n    WizardPresaleInterface internal constant wizardPresale = WizardPresaleInterface(address(0xd8E4C31D8EB7baD28909a3D2E2dCa6AACDaB1563));\n\n    /// @dev The ratio between the cost of a Wizard (in wei) and the power of the Wizard.\n    ///      power = cost / POWER_SCALE\n    ///      cost = power * POWER_SCALE\n    uint256 internal constant POWER_SCALE = 1000;\n    uint256 internal tournamentPowerScale;\n\n    /// @dev The constant conversion factor used for elementalWizardIncrement\n    uint256 private constant TENTH_BASIS_POINTS = 100000;\n\n    // Equals to `bytes4(keccak256(\"onERC721Received(address,address,uint256,bytes)\"))`\n    // which can be also obtained as `IERC721Receiver(0).onERC721Received.selector`\n    bytes4 private constant _ERC721_RECEIVED = 0x150b7a02;\n\n    // We pack these values together to save storage costs (and since they are all access together)\n    struct WizardCosts {\n        /// @dev The cost of Neutral Wizards (in wei).\n        uint96 neutralWizardCost;\n\n        /// @dev The cost of the _next_ Elemental Wizard (in wei); increases with each Elemental Wizard\n        ///      sold, at the rate defined in `elementalWizardIncrement`\n        uint96 elementalWizardCost;\n\n        /// @dev The increment ratio in cost between sequential Elemental Wizards, multiplied by 100k for\n        ///      greater granularity (TENTH_BASIS_POINTS)\n        uint32 elementalWizardIncrement;\n    }\n\n    WizardCosts public wizardCosts;\n\n    /// @param setCooAddress The initial COO address.\n    /// @param setCfoAddress The initial CFO address.\n    /// @param setNeutralWizardCost The cost of the Neutral Wizards, in wei.\n    /// @param setElementalWizardCost The starting cost of the Elemental Wizards, in wei.\n    /// @param setElementalWizardIncrement The rate at which the Elemental Wizards cost increases.\n    constructor(\n        address setCooAddress,\n        address payable setCfoAddress,\n        uint256 setNeutralWizardCost,\n        uint256 setElementalWizardCost,\n        uint256 setElementalWizardIncrement)\n        public AccessControl(setCooAddress, setCfoAddress)\n    {\n        wizardCosts = WizardCosts ({\n            neutralWizardCost: uint96(setNeutralWizardCost),\n            elementalWizardCost: uint96(setElementalWizardCost),\n            elementalWizardIncrement: uint32(setElementalWizardIncrement)\n        });\n    }\n\n    modifier onlyWizardController(uint256 wizardId) {\n        require(wizardGuild.isApprovedOrOwner(msg.sender, wizardId), \"Must be Wizard controller\");\n        _;\n    }\n\n    /// @dev The presale contract will be sending Ether directly to this contract,\n    ///      so we need it to have a payable fallback.\n    function() external payable {\n        require(msg.sender == address(wizardPresale), \"Don't send funds to GateKeeper\");\n    }\n\n    /// @notice Registers the address of the Tournament with the GateKeeper. This can't be passed\n    ///         into the constructor, because the Tournament itself needs a reference to the GateKeeper\n    ///         in its constructor!\n    ///\n    ///         NOTE: Technically, most of the functions below should have some kind of modifier\n    ///               that ensures that the Tournament is set before they are called, but that\n    ///               just adds gas. In practice, multiple draft Gatekeeper contracts may be\n    ///               deployed, so what matters is that we call this function before sharing\n    ///               the address of this contract publicly. No need to enforce that on chain,\n    ///               with its associated gas costs!\n    function registerTournament(address setTournament) external onlyCOO {\n        require(address(tournament) == address(0), \"Tournament already registered\");\n        tournament = TournamentInterface(setTournament);\n        require(\n            (setTournament != address(0)) &&\n            tournament.supportsInterface(_INTERFACE_ID_TOURNAMENT), \"Invalid Tournament\");\n\n        tournamentPowerScale = tournament.powerScale();\n        require(tournamentPowerScale <= POWER_SCALE, \"Power scale too high\");\n    }\n\n    /// @notice This is it folks, the main event! The way for the world to get new Wizards! Does\n    ///         pretty much what it says on the box; let's you conjure a new Wizard with a specified\n    ///         elemental affinity. The call must include enough Ether to cover the cost of the new\n    ///         Wizard, and any excess is refunded. The power of the Wizard is derived from\n    ///         the cost. YOU CAN NOT PAY EXTRA TO RAISE INITIAL POWER LATER. Returns the ID\n    ///         of the newly conjured Wizard.\n    ///\n    ///         While you cannot increase power later, you can conjure some more Wizards!\n    /// @param affinity The elemental affinity you want for the Wizard. Valid elements are\n    ///        defined in `WizardConstants`, see the constants with names starting `ELEMENT_`.\n    ///        ELEMENT_NOTSET is not valid for regular Wizards (unlike Exclusive Wizards).\n    function conjureWizard(uint8 affinity) external payable returns (uint256) {\n        uint8[] memory affinities = new uint8[](1);\n\n        affinities[0] = affinity;\n\n        uint256[] memory wizardIds = conjureWizardMulti(affinities);\n\n        return wizardIds[0];\n    }\n\n    /// @notice A convenience function that allows you to conjure a whole bunch of Wizards at once! You know how\n    ///         there's \"a pride of lions\", \"a murder of crows\", and \"a parliament of owls\"? Well, with this\n    ///         here function you can conjure yourself \"a stench of Cheeze Wizards\"!\n    /// @dev This function is careful to bundle all of the external calls (_transferRefund() and onERC721Received())\n    ///         at the end of the function to limit the risk of reentrancy attacks.\n    /// @param affinities The elemental affinites of the Wizards, can mix and match any valid types.\n    ///        Valid elements are defined in `WizardConstants`, see the constants with names starting\n    ///        `ELEMENT_`. ELEMENT_NOTSET is not valid for regular Wizards (unlike Exclusive Wizards).\n    function conjureWizardMulti(uint8[] memory affinities) public payable\n            returns (uint256[] memory wizardIds)\n    {\n        (uint256 totalCost, uint256 contribution, uint88[] memory powers) = _computeWizardPowers(affinities);\n\n        require(msg.value >= totalCost, \"Insufficient funds\");\n\n        // Mint the requested Wizards in the guild contract, assigning ownership to the sender\n        wizardIds = wizardGuild.mintWizards(powers, affinities, msg.sender);\n\n        // Enter the new Wizards into the Tournament\n        tournament.enterWizards.value(contribution)(wizardIds, powers);\n\n        // Ensure the Wizards are being assigned to an ERC-721 aware address (either an external address,\n        // or a smart contract that implements onERC721Received()). We must call onERC721Received() for\n        // each token minted because it's allowed for an ERC-721 receiving contract to reject the\n        // transfer based on the properties of the token.\n        if (isContract(msg.sender)) {\n            for (uint256 i = 0; i < wizardIds.length; i++) {\n                bytes4 transferAccepted = IERC721Receiver(msg.sender).onERC721Received(msg.sender, address(0), wizardIds[i], \"\");\n                require(transferAccepted == _ERC721_RECEIVED, \"Contract owner didn't accept ERC721 transfer\");\n            }\n        }\n\n        // NOTE: _transferRefund() is only safe if msg.value >= totalCost. See the require() near the\n        //       beginning of the function to feel better about this fact.\n        _transferRefund(totalCost);\n    }\n\n    /// @notice Allows for the creation of Exclusive Wizards. This can only be done by the COO, who still has\n    ///         to pay for the power imbued in these Wizards! Reverts if the owner address is a smart contract\n    ///         that is not ERC-721 aware.\n    /// @param wizardIds An array of IDs of the Wizards being conjured.\n    /// @param powers The power levels of the Wizards, corresponding 1:1 to Wizard IDs.\n    /// @param affinities The elemental affinities of the Wizards, corresponding 1:1 to Wizard IDs.\n    ///                   Valid elements are defined in `WizardConstants`, see the constants with\n    ///                   names starting `ELEMENT_`. ELEMENT_NOTSET is valid for Exclusive Wizards,\n    ///                   unlike regular Wizards.\n    /// @param owner The recipient address of the newly conjured Cheeze Wizards.\n    function conjureExclusiveMulti(\n        uint256[] calldata wizardIds,\n        uint256[] calldata powers,\n        uint8[] calldata affinities,\n        address owner\n    )\n        external payable onlyCOO\n    {\n        // Ensure the arrays are all of the same length\n        require(wizardIds.length == powers.length && powers.length == affinities.length, \"Inconsistent parameter lengths\");\n\n        uint256 totalCost = 0;\n        uint256 contribution = 0;\n        uint88[] memory localPowers = new uint88[](powers.length);\n\n        for (uint256 i = 0; i < powers.length; i++) {\n            require(affinities[i] <= MAX_ELEMENT, \"Invalid affinity\");\n\n            require(powers[i] < (1 << 88), \"Invalid power level\");\n            localPowers[i] = uint88(powers[i]);\n            uint256 wizardCost = powerToCost(localPowers[i]);\n\n            totalCost += wizardCost;\n            contribution += _potContribution(localPowers[i]);\n        }\n\n        require(msg.value >= totalCost, \"Insufficient funds\");\n\n        // Mint the requested Wizards via the guild contract\n        wizardGuild.mintReservedWizards(wizardIds, localPowers, affinities, owner);\n\n        // Enter the new Wizards into the Tournament\n        tournament.enterWizards.value(contribution)(wizardIds, localPowers);\n\n        // Ensure the Wizards are being assigned to an ERC-721 aware address (either an external address,\n        // or a smart contract that implements onERC721Received()). We must call onERC721Recieved for\n        // each token minted because it's allowed for an ERC-721 receiving contract to reject the\n        // transfer based on the properties of the token.\n        if (isContract(owner)) {\n            for (uint256 i = 0; i < wizardIds.length; i++) {\n                bytes4 transferAccepted = IERC721Receiver(owner).onERC721Received(msg.sender, address(0), wizardIds[i], \"\");\n                require(transferAccepted == _ERC721_RECEIVED, \"Contract owner didn't accept ERC721 transfer\");\n            }\n        }\n\n        // NOTE: _transferRefund() is only safe if msg.value >= totalCost. See the require() near the\n        //       middle of the function to feel better about this fact.\n        _transferRefund(totalCost);\n    }\n\n    /// @notice Computes the powers, total cost, and prize pot contribution for an array of new Wizards\n    ///         based on the provided affinities. This also checks that the affinity values are valid\n    ///         for the Tournament, and updates the elementalWizardCost storage variable as relevant.\n    function _computeWizardPowers(uint8[] memory affinities) internal\n            returns(uint256 totalCost, uint256 contribution, uint88[] memory powers)\n    {\n        // Cache the Wizard costs in order to reduce the gas costs from reads and writes to storage.\n        uint256 neutralWizardCost = wizardCosts.neutralWizardCost;\n        uint256 elementalWizardCost = wizardCosts.elementalWizardCost;\n        uint256 elementalWizardIncrement = wizardCosts.elementalWizardIncrement;\n\n        totalCost = 0;\n        contribution = 0;\n        powers = new uint88[](affinities.length);\n\n        for (uint256 i = 0; i < affinities.length; i++) {\n            uint8 affinity = affinities[i];\n            uint256 wizardCost;\n\n            require(affinity > ELEMENT_NOTSET && affinity <= MAX_ELEMENT, \"Invalid affinity\");\n\n            // Determine the price of the Wizard\n            if (affinity == ELEMENT_NEUTRAL) {\n                wizardCost = neutralWizardCost;\n            } else {\n                wizardCost = elementalWizardCost;\n\n                // Update the cost of the next Elemental Wizard\n                // NOTE: This math can't overflow because the total Ether supply in wei is well less than\n                //       2^128. Multiplying a valid cost in wei by some number <100k\n                //       cannot possibly overflow 256 bits. As cost is calculated\n                //       ourselves (rather than user provided) we know it must\n                //       be in the valid range.\n                elementalWizardCost += (elementalWizardCost * elementalWizardIncrement) / TENTH_BASIS_POINTS;\n            }\n\n            powers[i] = costToPower(wizardCost);\n\n            // IMPORTANT! Mathematically, you'd think we could just compute the pot contribution at the\n            // end of the loop, but this risks rounding differences between\n            // conjuring Wizards individually compared to conjuring them as a stench.\n            contribution += _potContribution(powers[i]);\n            totalCost += wizardCost;\n        }\n\n        // Update the cached elemental cost to storage. Conveniently this costs very little if\n        // the value isn't actually changed.\n        wizardCosts.elementalWizardCost = uint96(elementalWizardCost);\n    }\n\n    /// @notice Absorbs a number of presale Wizards into the final NFT contract, while also entering them into\n    ///         the Tournament. Can handle any number of Wizards in a batch BUT THEY MUST ALL HAVE THE SAME OWNER.\n    ///         Callable by anyone.\n    /// @param wizardIds The IDs of the presale Wizards; note that all Wizards MUST have the same owner.\n    function absorbPresaleWizards(uint256[] calldata wizardIds) external {\n        // Bulk fetch the Wizards from the presale contract. Note that this will also delete those Wizards from the\n        // presale contract, and will also transfer the funds used to purchase those Wizards to this contract.\n        // Obviously, a failed require() statement later in this funciton will undo that transfer and those deletes.\n        (\n            address[] memory owners,\n             uint256[] memory powers,\n             uint8[] memory affinities\n        ) = wizardPresale.absorbWizardMulti(wizardIds);\n\n        uint256 contribution = 0;\n        address theOwner = owners[0];\n        uint88[] memory localPowers = new uint88[](powers.length);\n\n        for (uint256 i = 0; i < powers.length; i++) {\n            require(owners[i] == theOwner, \"All Wizards must have same owner\");\n            localPowers[i] = uint88(powers[i]);\n            contribution += _potContribution(localPowers[i]);\n        }\n\n        // Mint the requested Wizards in the guild contract\n        wizardGuild.mintReservedWizards(wizardIds, localPowers, affinities, theOwner);\n\n        // Enter the new Wizards into the Tournament\n        tournament.enterWizards.value(contribution)(wizardIds, localPowers);\n    }\n\n    /// @notice Revive a tired Wizard so they can duel again. The caller must own\n    ///         the Wizard.\n    /// @param wizardId The ID of the Wizard to revive.\n    function revive(uint256 wizardId) external payable onlyWizardController(wizardId) {\n        // We don't need to do any validation here, we can let the Tournament decide\n        // if the pot contribution amount derived from msg.value represents a valid\n        // power level to use for reviving this Wizard.\n        uint88 purchasedPower = costToPower(msg.value);\n        uint256 potContributionValue = _potContribution(purchasedPower);\n\n        tournament.revive.value(potContributionValue)(wizardId);\n    }\n\n    /// @notice Sets the affinity for a Wizard that doesn't already have its elemental affinity chosen.\n    ///         As a rule this is only ever expected to apply to Exclusive Wizards, as regular wizards\n    ///         have their affinity set when they are conjured.\n    function setAffinity(uint256 wizardId, uint8 newAffinity) external onlyWizardController(wizardId) {\n        require(newAffinity > ELEMENT_NOTSET && newAffinity <= MAX_ELEMENT, \"Must choose a valid affinity\");\n\n        // The guild will enforce the Wizard doesn't already have an affinity set.\n        wizardGuild.setAffinity(wizardId, newAffinity);\n    }\n\n    /// @notice Determine the power of a Wizard based on their price.\n    /// @param cost The price of the Wizard in wei.\n    /// @return The power of the Wizard (cast to uint88).\n    function costToPower(uint256 cost) public pure returns (uint88 power) {\n        return uint88(cost / POWER_SCALE);\n    }\n\n    /// @param power The power of the Wizard.\n    /// @return The cost of the Wizard in wei.\n    function powerToCost(uint88 power) public pure returns (uint256 cost) {\n        return power * POWER_SCALE;\n    }\n\n    /// @notice Computes the number of wei required to be sent to the Tournament\n    ///         in order to match a given power level.\n    /// @param wizardPower The power level\n    /// @return The prize pot contribution necessary to match the given power\n    function _potContribution(uint88 wizardPower) internal view returns (uint256) {\n        return wizardPower * tournamentPowerScale;\n    }\n\n    /// @notice Allows the CFO to withdraw funds from this contract.\n    function withdraw() external onlyCFO {\n        // All of the pot contributions go directly into the Tournament contract, so\n        // we can safely withdraw everything, with no hold-backs.\n        msg.sender.transfer(address(this).balance);\n    }\n\n    /// @notice Allows the COO to destroy this contract if it's not needed anymore.\n    function destroy() external onlyCOO {\n        require(address(this).balance == 0, \"Drain the funds first\");\n        require(address(tournament) == address(0) || tournament.isActive() == false, \"Tournament active\");\n\n        selfdestruct(msg.sender);\n    }\n\n    /// @notice Utility function that refunds any overpayment to the sender; smart\n    ///      enough to only send the excess if the amount we are returning is more than the\n    ///      cost of sending it!\n    /// @dev Warning! This does not check for underflows (msg.value < actualPrice) - so\n    ///      be sure to call this with correct values!\n    /// @param actualPrice The actual price owed for the conjured Wizards.\n    function _transferRefund(uint256 actualPrice) private {\n        uint256 refund = msg.value - actualPrice;\n\n        // Make sure the amount we're trying to refund is less than the actual cost of sending it!\n        // See https://github.com/ethereum/wiki/wiki/Subtleties for magic values costs.  We can\n        // safley ignore the 25000 additional gas cost for new accounts, as msg.sender is\n        // guarunteed to exist at this point!\n        if (refund > (tx.gasprice * (9000+700))) {\n            msg.sender.transfer(refund);\n        }\n    }\n}\n",
  "sourcePath": "/home/john/All_Code/Hackathons/CheeseWizards/CWcontracts/contracts/InauguralGateKeeper.sol",
  "compiler": {
    "name": "solc",
    "version": "0.5.6+commit.b259423e.Emscripten.clang"
  },
  "schemaVersion": "3.0.5",
  "updatedAt": "2019-08-20T23:43:30.700Z",
  "devdoc": {
    "methods": {
      "absorbPresaleWizards(uint256[])": {
        "params": {
          "wizardIds": "The IDs of the presale Wizards; note that all Wizards MUST have the same owner."
        }
      },
      "conjureExclusiveMulti(uint256[],uint256[],uint8[],address)": {
        "params": {
          "affinities": "The elemental affinities of the Wizards, corresponding 1:1 to Wizard IDs.                   Valid elements are defined in `WizardConstants`, see the constants with                   names starting `ELEMENT_`. ELEMENT_NOTSET is valid for Exclusive Wizards,                   unlike regular Wizards.",
          "owner": "The recipient address of the newly conjured Cheeze Wizards.",
          "powers": "The power levels of the Wizards, corresponding 1:1 to Wizard IDs.",
          "wizardIds": "An array of IDs of the Wizards being conjured."
        }
      },
      "conjureWizard(uint8)": {
        "params": {
          "affinity": "The elemental affinity you want for the Wizard. Valid elements are        defined in `WizardConstants`, see the constants with names starting `ELEMENT_`.        ELEMENT_NOTSET is not valid for regular Wizards (unlike Exclusive Wizards)."
        }
      },
      "conjureWizardMulti(uint8[])": {
        "details": "This function is careful to bundle all of the external calls (_transferRefund() and onERC721Received())         at the end of the function to limit the risk of reentrancy attacks.",
        "params": {
          "affinities": "The elemental affinites of the Wizards, can mix and match any valid types.        Valid elements are defined in `WizardConstants`, see the constants with names starting        `ELEMENT_`. ELEMENT_NOTSET is not valid for regular Wizards (unlike Exclusive Wizards)."
        }
      },
      "constructor": {
        "params": {
          "setCfoAddress": "The initial CFO address.",
          "setCooAddress": "The initial COO address.",
          "setElementalWizardCost": "The starting cost of the Elemental Wizards, in wei.",
          "setElementalWizardIncrement": "The rate at which the Elemental Wizards cost increases.",
          "setNeutralWizardCost": "The cost of the Neutral Wizards, in wei."
        }
      },
      "costToPower(uint256)": {
        "params": {
          "cost": "The price of the Wizard in wei."
        },
        "return": "The power of the Wizard (cast to uint88)."
      },
      "powerToCost(uint88)": {
        "params": {
          "power": "The power of the Wizard."
        },
        "return": "The cost of the Wizard in wei."
      },
      "revive(uint256)": {
        "params": {
          "wizardId": "The ID of the Wizard to revive."
        }
      },
      "setCeo(address)": {
        "params": {
          "newCeo": "The address of the new CEO"
        }
      },
      "setCfo(address)": {
        "params": {
          "newCfo": "The address of the new CFO"
        }
      },
      "setCoo(address)": {
        "params": {
          "newCoo": "The address of the new COO"
        }
      }
    },
    "title": "The Inaugural Cheeze Wizards Gate Keeper contract"
  },
  "userdoc": {
    "methods": {
      "absorbPresaleWizards(uint256[])": {
        "notice": "Absorbs a number of presale Wizards into the final NFT contract, while also entering them into         the Tournament. Can handle any number of Wizards in a batch BUT THEY MUST ALL HAVE THE SAME OWNER.         Callable by anyone."
      },
      "conjureExclusiveMulti(uint256[],uint256[],uint8[],address)": {
        "notice": "Allows for the creation of Exclusive Wizards. This can only be done by the COO, who still has         to pay for the power imbued in these Wizards! Reverts if the owner address is a smart contract         that is not ERC-721 aware."
      },
      "conjureWizard(uint8)": {
        "notice": "This is it folks, the main event! The way for the world to get new Wizards! Does         pretty much what it says on the box; let's you conjure a new Wizard with a specified         elemental affinity. The call must include enough Ether to cover the cost of the new         Wizard, and any excess is refunded. The power of the Wizard is derived from         the cost. YOU CAN NOT PAY EXTRA TO RAISE INITIAL POWER LATER. Returns the ID         of the newly conjured Wizard.     ///         While you cannot increase power later, you can conjure some more Wizards!"
      },
      "conjureWizardMulti(uint8[])": {
        "notice": "A convenience function that allows you to conjure a whole bunch of Wizards at once! You know how         there's \"a pride of lions\", \"a murder of crows\", and \"a parliament of owls\"? Well, with this         here function you can conjure yourself \"a stench of Cheeze Wizards\"!"
      },
      "costToPower(uint256)": {
        "notice": "Determine the power of a Wizard based on their price."
      },
      "destroy()": {
        "notice": "Allows the COO to destroy this contract if it's not needed anymore."
      },
      "registerTournament(address)": {
        "notice": "Registers the address of the Tournament with the GateKeeper. This can't be passed         into the constructor, because the Tournament itself needs a reference to the GateKeeper         in its constructor!     ///         NOTE: Technically, most of the functions below should have some kind of modifier               that ensures that the Tournament is set before they are called, but that               just adds gas. In practice, multiple draft Gatekeeper contracts may be               deployed, so what matters is that we call this function before sharing               the address of this contract publicly. No need to enforce that on chain,               with its associated gas costs!"
      },
      "revive(uint256)": {
        "notice": "Revive a tired Wizard so they can duel again. The caller must own         the Wizard."
      },
      "setAffinity(uint256,uint8)": {
        "notice": "Sets the affinity for a Wizard that doesn't already have its elemental affinity chosen.         As a rule this is only ever expected to apply to Exclusive Wizards, as regular wizards         have their affinity set when they are conjured."
      },
      "setCeo(address)": {
        "notice": "Assigns a new address to act as the CEO. Only available to the current CEO."
      },
      "setCfo(address)": {
        "notice": "Assigns a new address to act as the CFO. Only available to the current CEO."
      },
      "setCoo(address)": {
        "notice": "Assigns a new address to act as the COO. Only available to the current CEO."
      },
      "withdraw()": {
        "notice": "Allows the CFO to withdraw funds from this contract."
      }
    },
    "notice": "The GateKeeper is responsible for determining which Wizards are allowed to enter into         a Tournament. This particular GateKeeper is designed to manage the first, official         Cheeze Wizards Tournament! It's much more complicated than a typical GateKeeper         implementation because it needs to juggle two additional issues that most GateKeepers         don't need to deal with: Importing Wizards from the Presale contract and minting tokens         to represent newly conjured Wizards."
  }
}