{
  "contractName": "Simple",
  "abi": [
    {
      "constant": true,
      "inputs": [],
      "name": "moveMask",
      "outputs": [
        {
          "name": "",
          "type": "bytes32"
        }
      ],
      "payable": false,
      "stateMutability": "view",
      "type": "function",
      "signature": "0xbfd4279e"
    },
    {
      "constant": true,
      "inputs": [
        {
          "name": "moveSet",
          "type": "bytes32"
        }
      ],
      "name": "isValidMoveSet",
      "outputs": [
        {
          "name": "",
          "type": "bool"
        }
      ],
      "payable": false,
      "stateMutability": "pure",
      "type": "function",
      "signature": "0x1823fbbc"
    }
  ],
  "bytecode": "0x608060405234801561001057600080fd5b50610199806100206000396000f3fe608060405234801561001057600080fd5b5060043610610053576000357c0100000000000000000000000000000000000000000000000000000000900480631823fbbc14610058578063bfd4279e1461009e575b600080fd5b6100846004803603602081101561006e57600080fd5b81019080803590602001909291905050506100bc565b604051808215151515815260200191505060405180910390f35b6100a6610146565b6040518082815260200191505060405180910390f35b60007f020202020200000000000000000000000000000000000000000000000000000082600190040360010291507f03030303030000000000000000000000000000000000000000000000000000006001028216821461011f5760009050610141565b60006001026001839060020a0283161461013c5760009050610141565b600190505b919050565b7f03030303030000000000000000000000000000000000000000000000000000006001028156fea165627a7a723058206251986f11aea3feb20c34a7ed75497d46b2d0365d32ae167ce8140880adcf010029",
  "source": "contract Simple{\n     bytes32 public constant moveMask = 0x0303030303000000000000000000000000000000000000000000000000000000;\n\n    /// @dev The moves come in from the front end as 2, 3, and 4; the logic below is simpler if the valid\n    /// moves are 0, 1, 2. Thus, we subtract 2 from each value to put things in the range that works well for us.\n    /// See WizardConstants for the element values, to understand where 2, 3 and 4 come from.\n    uint256 internal constant moveDelta = 0x0202020202000000000000000000000000000000000000000000000000000000;\n    \n      function isValidMoveSet(bytes32 moveSet) public pure returns(bool) { // solium-disable-line security/no-assign-params\n        // Map the input values 2, 3, 4 onto 0, 1, 2.\n        moveSet = bytes32(uint256(moveSet) - moveDelta);\n\n        // Fails if any bit is set outside the allowed mask\n        if (moveSet != (moveSet & moveMask)) {\n            return false;\n        }\n\n        // The previous line ensures that all values are 0, 1, 2, or 3, but\n        // 3 isn’t actually valid. The following check ensures that no two\n        // adjacent bits are set, which excludes any threes.\n        if ((moveSet & (moveSet << 1)) != bytes32(0)) {\n            return false;\n        }\n\n        return true;\n    }\n    \n}",
  "sourcePath": "/home/john/All_Code/Hackathons/CheeseWizards/CWcontracts/contracts/Simple.sol",
  "compiler": {
    "name": "solc",
    "version": "0.5.6+commit.b259423e.Emscripten.clang"
  },
  "schemaVersion": "3.0.5",
  "updatedAt": "2019-08-21T19:00:55.663Z",
  "devdoc": {
    "methods": {}
  },
  "userdoc": {
    "methods": {}
  }
}