{
  "contractName": "WizardPresale",
  "abi": [
    {
      "constant": true,
      "inputs": [
        {
          "name": "interfaceId",
          "type": "bytes4"
        }
      ],
      "name": "supportsInterface",
      "outputs": [
        {
          "name": "",
          "type": "bool"
        }
      ],
      "payable": false,
      "stateMutability": "view",
      "type": "function"
    },
    {
      "constant": true,
      "inputs": [
        {
          "name": "tokenId",
          "type": "uint256"
        }
      ],
      "name": "getApproved",
      "outputs": [
        {
          "name": "",
          "type": "address"
        }
      ],
      "payable": false,
      "stateMutability": "view",
      "type": "function"
    },
    {
      "constant": false,
      "inputs": [
        {
          "name": "to",
          "type": "address"
        },
        {
          "name": "tokenId",
          "type": "uint256"
        }
      ],
      "name": "approve",
      "outputs": [],
      "payable": false,
      "stateMutability": "nonpayable",
      "type": "function"
    },
    {
      "constant": true,
      "inputs": [],
      "name": "saleStartBlock",
      "outputs": [
        {
          "name": "",
          "type": "uint256"
        }
      ],
      "payable": false,
      "stateMutability": "view",
      "type": "function"
    },
    {
      "constant": false,
      "inputs": [
        {
          "name": "from",
          "type": "address"
        },
        {
          "name": "to",
          "type": "address"
        },
        {
          "name": "tokenId",
          "type": "uint256"
        }
      ],
      "name": "transferFrom",
      "outputs": [],
      "payable": false,
      "stateMutability": "nonpayable",
      "type": "function"
    },
    {
      "constant": true,
      "inputs": [],
      "name": "elementalWizardIncrement",
      "outputs": [
        {
          "name": "",
          "type": "uint256"
        }
      ],
      "payable": false,
      "stateMutability": "view",
      "type": "function"
    },
    {
      "constant": true,
      "inputs": [],
      "name": "saleDuration",
      "outputs": [
        {
          "name": "",
          "type": "uint256"
        }
      ],
      "payable": false,
      "stateMutability": "view",
      "type": "function"
    },
    {
      "constant": false,
      "inputs": [
        {
          "name": "from",
          "type": "address"
        },
        {
          "name": "to",
          "type": "address"
        },
        {
          "name": "tokenId",
          "type": "uint256"
        }
      ],
      "name": "safeTransferFrom",
      "outputs": [],
      "payable": false,
      "stateMutability": "nonpayable",
      "type": "function"
    },
    {
      "constant": true,
      "inputs": [
        {
          "name": "tokenId",
          "type": "uint256"
        }
      ],
      "name": "ownerOf",
      "outputs": [
        {
          "name": "",
          "type": "address"
        }
      ],
      "payable": false,
      "stateMutability": "view",
      "type": "function"
    },
    {
      "constant": true,
      "inputs": [
        {
          "name": "",
          "type": "uint256"
        }
      ],
      "name": "_wizardsById",
      "outputs": [
        {
          "name": "affinity",
          "type": "uint8"
        },
        {
          "name": "power",
          "type": "uint88"
        },
        {
          "name": "owner",
          "type": "address"
        }
      ],
      "payable": false,
      "stateMutability": "view",
      "type": "function"
    },
    {
      "constant": true,
      "inputs": [
        {
          "name": "owner",
          "type": "address"
        }
      ],
      "name": "balanceOf",
      "outputs": [
        {
          "name": "",
          "type": "uint256"
        }
      ],
      "payable": false,
      "stateMutability": "view",
      "type": "function"
    },
    {
      "constant": true,
      "inputs": [],
      "name": "guildmaster",
      "outputs": [
        {
          "name": "",
          "type": "address"
        }
      ],
      "payable": false,
      "stateMutability": "view",
      "type": "function"
    },
    {
      "constant": true,
      "inputs": [],
      "name": "neutralWizardCost",
      "outputs": [
        {
          "name": "",
          "type": "uint256"
        }
      ],
      "payable": false,
      "stateMutability": "view",
      "type": "function"
    },
    {
      "constant": true,
      "inputs": [],
      "name": "_INTERFACE_ID_WIZARDPRESALE",
      "outputs": [
        {
          "name": "",
          "type": "bytes4"
        }
      ],
      "payable": false,
      "stateMutability": "view",
      "type": "function"
    },
    {
      "constant": true,
      "inputs": [],
      "name": "maxExclusives",
      "outputs": [
        {
          "name": "",
          "type": "uint256"
        }
      ],
      "payable": false,
      "stateMutability": "view",
      "type": "function"
    },
    {
      "constant": false,
      "inputs": [
        {
          "name": "to",
          "type": "address"
        },
        {
          "name": "approved",
          "type": "bool"
        }
      ],
      "name": "setApprovalForAll",
      "outputs": [],
      "payable": false,
      "stateMutability": "nonpayable",
      "type": "function"
    },
    {
      "constant": true,
      "inputs": [],
      "name": "gatekeeper",
      "outputs": [
        {
          "name": "",
          "type": "address"
        }
      ],
      "payable": false,
      "stateMutability": "view",
      "type": "function"
    },
    {
      "constant": false,
      "inputs": [
        {
          "name": "from",
          "type": "address"
        },
        {
          "name": "to",
          "type": "address"
        },
        {
          "name": "tokenId",
          "type": "uint256"
        },
        {
          "name": "_data",
          "type": "bytes"
        }
      ],
      "name": "safeTransferFrom",
      "outputs": [],
      "payable": false,
      "stateMutability": "nonpayable",
      "type": "function"
    },
    {
      "constant": true,
      "inputs": [],
      "name": "nextWizardId",
      "outputs": [
        {
          "name": "",
          "type": "uint256"
        }
      ],
      "payable": false,
      "stateMutability": "view",
      "type": "function"
    },
    {
      "constant": true,
      "inputs": [
        {
          "name": "owner",
          "type": "address"
        },
        {
          "name": "operator",
          "type": "address"
        }
      ],
      "name": "isApprovedForAll",
      "outputs": [
        {
          "name": "",
          "type": "bool"
        }
      ],
      "payable": false,
      "stateMutability": "view",
      "type": "function"
    },
    {
      "constant": true,
      "inputs": [],
      "name": "elementalWizardCost",
      "outputs": [
        {
          "name": "",
          "type": "uint256"
        }
      ],
      "payable": false,
      "stateMutability": "view",
      "type": "function"
    },
    {
      "inputs": [
        {
          "name": "startingCost",
          "type": "uint128"
        },
        {
          "name": "costIncremement",
          "type": "uint16"
        },
        {
          "name": "exclusiveCount",
          "type": "uint256"
        },
        {
          "name": "startBlock",
          "type": "uint128"
        },
        {
          "name": "duration",
          "type": "uint128"
        }
      ],
      "payable": false,
      "stateMutability": "nonpayable",
      "type": "constructor"
    },
    {
      "anonymous": false,
      "inputs": [
        {
          "indexed": false,
          "name": "oldStartBlock",
          "type": "uint256"
        },
        {
          "indexed": false,
          "name": "newStartBlock",
          "type": "uint256"
        }
      ],
      "name": "StartBlockChanged",
      "type": "event"
    },
    {
      "anonymous": false,
      "inputs": [
        {
          "indexed": true,
          "name": "from",
          "type": "address"
        },
        {
          "indexed": true,
          "name": "to",
          "type": "address"
        },
        {
          "indexed": true,
          "name": "tokenId",
          "type": "uint256"
        }
      ],
      "name": "Transfer",
      "type": "event"
    },
    {
      "anonymous": false,
      "inputs": [
        {
          "indexed": true,
          "name": "owner",
          "type": "address"
        },
        {
          "indexed": true,
          "name": "approved",
          "type": "address"
        },
        {
          "indexed": true,
          "name": "tokenId",
          "type": "uint256"
        }
      ],
      "name": "Approval",
      "type": "event"
    },
    {
      "anonymous": false,
      "inputs": [
        {
          "indexed": true,
          "name": "owner",
          "type": "address"
        },
        {
          "indexed": true,
          "name": "operator",
          "type": "address"
        },
        {
          "indexed": false,
          "name": "approved",
          "type": "bool"
        }
      ],
      "name": "ApprovalForAll",
      "type": "event"
    },
    {
      "anonymous": false,
      "inputs": [
        {
          "indexed": true,
          "name": "tokenId",
          "type": "uint256"
        },
        {
          "indexed": false,
          "name": "element",
          "type": "uint8"
        },
        {
          "indexed": false,
          "name": "power",
          "type": "uint256"
        }
      ],
      "name": "WizardSummoned",
      "type": "event"
    },
    {
      "anonymous": false,
      "inputs": [
        {
          "indexed": true,
          "name": "tokenId",
          "type": "uint256"
        },
        {
          "indexed": false,
          "name": "element",
          "type": "uint8"
        }
      ],
      "name": "WizardAlignmentAssigned",
      "type": "event"
    },
    {
      "constant": false,
      "inputs": [
        {
          "name": "gc",
          "type": "address"
        }
      ],
      "name": "setGatekeeper",
      "outputs": [],
      "payable": false,
      "stateMutability": "nonpayable",
      "type": "function"
    },
    {
      "constant": false,
      "inputs": [
        {
          "name": "newStart",
          "type": "uint128"
        }
      ],
      "name": "postponeSale",
      "outputs": [],
      "payable": false,
      "stateMutability": "nonpayable",
      "type": "function"
    },
    {
      "constant": true,
      "inputs": [],
      "name": "isDuringSale",
      "outputs": [
        {
          "name": "",
          "type": "bool"
        }
      ],
      "payable": false,
      "stateMutability": "view",
      "type": "function"
    },
    {
      "constant": true,
      "inputs": [
        {
          "name": "id",
          "type": "uint256"
        }
      ],
      "name": "getWizard",
      "outputs": [
        {
          "name": "owner",
          "type": "address"
        },
        {
          "name": "power",
          "type": "uint88"
        },
        {
          "name": "affinity",
          "type": "uint8"
        }
      ],
      "payable": false,
      "stateMutability": "view",
      "type": "function"
    },
    {
      "constant": true,
      "inputs": [
        {
          "name": "cost",
          "type": "uint256"
        }
      ],
      "name": "costToPower",
      "outputs": [
        {
          "name": "power",
          "type": "uint256"
        }
      ],
      "payable": false,
      "stateMutability": "pure",
      "type": "function"
    },
    {
      "constant": true,
      "inputs": [
        {
          "name": "power",
          "type": "uint256"
        }
      ],
      "name": "powerToCost",
      "outputs": [
        {
          "name": "cost",
          "type": "uint256"
        }
      ],
      "payable": false,
      "stateMutability": "pure",
      "type": "function"
    },
    {
      "constant": false,
      "inputs": [
        {
          "name": "id",
          "type": "uint256"
        }
      ],
      "name": "absorbWizard",
      "outputs": [
        {
          "name": "owner",
          "type": "address"
        },
        {
          "name": "power",
          "type": "uint256"
        },
        {
          "name": "affinity",
          "type": "uint8"
        }
      ],
      "payable": false,
      "stateMutability": "nonpayable",
      "type": "function"
    },
    {
      "constant": false,
      "inputs": [
        {
          "name": "ids",
          "type": "uint256[]"
        }
      ],
      "name": "absorbWizardMulti",
      "outputs": [
        {
          "name": "owners",
          "type": "address[]"
        },
        {
          "name": "powers",
          "type": "uint256[]"
        },
        {
          "name": "affinities",
          "type": "uint8[]"
        }
      ],
      "payable": false,
      "stateMutability": "nonpayable",
      "type": "function"
    },
    {
      "constant": false,
      "inputs": [
        {
          "name": "id",
          "type": "uint256"
        },
        {
          "name": "owner",
          "type": "address"
        },
        {
          "name": "affinity",
          "type": "uint8"
        }
      ],
      "name": "conjureExclusiveWizard",
      "outputs": [],
      "payable": true,
      "stateMutability": "payable",
      "type": "function"
    },
    {
      "constant": false,
      "inputs": [
        {
          "name": "id",
          "type": "uint256"
        },
        {
          "name": "owner",
          "type": "address"
        },
        {
          "name": "affinity",
          "type": "uint8"
        }
      ],
      "name": "safeConjureExclusiveWizard",
      "outputs": [],
      "payable": true,
      "stateMutability": "payable",
      "type": "function"
    },
    {
      "constant": false,
      "inputs": [
        {
          "name": "ids",
          "type": "uint256[]"
        },
        {
          "name": "owners",
          "type": "address[]"
        },
        {
          "name": "powers",
          "type": "uint256[]"
        },
        {
          "name": "affinities",
          "type": "uint8[]"
        }
      ],
      "name": "conjureExclusiveWizardMulti",
      "outputs": [],
      "payable": true,
      "stateMutability": "payable",
      "type": "function"
    },
    {
      "constant": false,
      "inputs": [
        {
          "name": "wizardId",
          "type": "uint256"
        },
        {
          "name": "newAffinity",
          "type": "uint8"
        }
      ],
      "name": "setAffinity",
      "outputs": [],
      "payable": false,
      "stateMutability": "nonpayable",
      "type": "function"
    },
    {
      "constant": false,
      "inputs": [
        {
          "name": "affinity",
          "type": "uint8"
        }
      ],
      "name": "conjureWizard",
      "outputs": [
        {
          "name": "wizardId",
          "type": "uint256"
        }
      ],
      "payable": true,
      "stateMutability": "payable",
      "type": "function"
    },
    {
      "constant": false,
      "inputs": [
        {
          "name": "affinities",
          "type": "uint8[]"
        }
      ],
      "name": "conjureWizardMulti",
      "outputs": [
        {
          "name": "wizardIds",
          "type": "uint256[]"
        }
      ],
      "payable": true,
      "stateMutability": "payable",
      "type": "function"
    },
    {
      "constant": false,
      "inputs": [],
      "name": "destroy",
      "outputs": [],
      "payable": false,
      "stateMutability": "nonpayable",
      "type": "function"
    }
  ],
  "bytecode": "0x60806040523480156200001157600080fd5b5060405160a08062004996833981018060405260a08110156200003357600080fd5b810190808051906020019092919080519060200190929190805190602001909291908051906020019092919080519060200190929190505050620000a96301ffc9a77c0100000000000000000000000000000000000000000000000000000000026200025b640100000000026401000000009004565b620000e66380ac58cd7c0100000000000000000000000000000000000000000000000000000000026200025b640100000000026401000000009004565b43826fffffffffffffffffffffffffffffffff161162000152576040517f08c379a00000000000000000000000000000000000000000000000000000000081526004018080602001828103825260288152602001806200496e6028913960400191505060405180910390fd5b33600560006101000a81548173ffffffffffffffffffffffffffffffffffffffff021916908373ffffffffffffffffffffffffffffffffffffffff160217905550816fffffffffffffffffffffffffffffffff16600681905550806fffffffffffffffffffffffffffffffff16600781905550846fffffffffffffffffffffffffffffffff16600881905550846fffffffffffffffffffffffffffffffff166009819055508361ffff16600a8190555082600b8190555060018301600c8190555062000250634df71efb7c0100000000000000000000000000000000000000000000000000000000026200025b640100000000026401000000009004565b505050505062000317565b63ffffffff7c010000000000000000000000000000000000000000000000000000000002817bffffffffffffffffffffffffffffffffffffffffffffffffffffffff19161415620002ab57600080fd5b6001600080837bffffffffffffffffffffffffffffffffffffffffffffffffffffffff19167bffffffffffffffffffffffffffffffffffffffffffffffffffffffff1916815260200190815260200160002060006101000a81548160ff02191690831515021790555050565b61464780620003276000396000f3fe60806040526004361061022c576000357c01000000000000000000000000000000000000000000000000000000009004806383197ef011610135578063ce6991fd116100bd578063ec8cd3ce1161008c578063ec8cd3ce14610eea578063f1cb560614610f15578063fac8eafc14610f70578063fbb9795614611019578063ffc0b9ad1461106a5761022c565b8063ce6991fd14610d19578063dc9f1cdd14610de7578063e5a604bf14610e12578063e985e9c514610e615761022c565b80639b025025116101045780639b02502514610a99578063a22cb46514610ac4578063a59c9c2714610b21578063a7847c3a14610b78578063b88d4fde14610c075761022c565b806383197ef0146109a65780638be7310c146109bd5780638ef0da6f146109e857806398d7a41414610a515761022c565b806348b92c20116101b857806363f3ce311161018757806363f3ce31146107b75780636de9b6d81461086057806370a082311461088f578063795cfa9b146108f45780637f7ca38e1461094f5761022c565b806348b92c201461065b578063565ca6dd146106aa578063573f322f146106f75780636352211e1461073c5761022c565b806323b872dd116101ff57806323b872dd146103a45780632447aee91461041f5780633711d9fb1461044a57806342842e0e14610475578063476c4a5e146104f05761022c565b806301ffc9a714610231578063081812fc146102a3578063095ea7b31461031e5780632002727514610379575b600080fd5b34801561023d57600080fd5b506102896004803603602081101561025457600080fd5b8101908080357bffffffffffffffffffffffffffffffffffffffffffffffffffffffff191690602001909291905050506111e2565b604051808215151515815260200191505060405180910390f35b3480156102af57600080fd5b506102dc600480360360208110156102c657600080fd5b8101908080359060200190929190505050611249565b604051808273ffffffffffffffffffffffffffffffffffffffff1673ffffffffffffffffffffffffffffffffffffffff16815260200191505060405180910390f35b34801561032a57600080fd5b506103776004803603604081101561034157600080fd5b81019080803573ffffffffffffffffffffffffffffffffffffffff169060200190929190803590602001909291905050506112e4565b005b34801561038557600080fd5b5061038e6114bd565b6040518082815260200191505060405180910390f35b3480156103b057600080fd5b5061041d600480360360608110156103c757600080fd5b81019080803573ffffffffffffffffffffffffffffffffffffffff169060200190929190803573ffffffffffffffffffffffffffffffffffffffff169060200190929190803590602001909291905050506114c3565b005b34801561042b57600080fd5b50610434611532565b6040518082815260200191505060405180910390f35b34801561045657600080fd5b5061045f611538565b6040518082815260200191505060405180910390f35b34801561048157600080fd5b506104ee6004803603606081101561049857600080fd5b81019080803573ffffffffffffffffffffffffffffffffffffffff169060200190929190803573ffffffffffffffffffffffffffffffffffffffff1690602001909291908035906020019092919050505061153e565b005b3480156104fc57600080fd5b506105746004803603602081101561051357600080fd5b810190808035906020019064010000000081111561053057600080fd5b82018360208201111561054257600080fd5b8035906020019184602083028401116401000000008311171561056457600080fd5b909192939192939050505061155e565b60405180806020018060200180602001848103845287818151815260200191508051906020019060200280838360005b838110156105bf5780820151818401526020810190506105a4565b50505050905001848103835286818151815260200191508051906020019060200280838360005b838110156106015780820151818401526020810190506105e6565b50505050905001848103825285818151815260200191508051906020019060200280838360005b83811015610643578082015181840152602081019050610628565b50505050905001965050505050505060405180910390f35b34801561066757600080fd5b506106946004803603602081101561067e57600080fd5b8101908080359060200190929190505050611829565b6040518082815260200191505060405180910390f35b3480156106b657600080fd5b506106f5600480360360208110156106cd57600080fd5b8101908080356fffffffffffffffffffffffffffffffff169060200190929190505050611837565b005b6107266004803603602081101561070d57600080fd5b81019080803560ff169060200190929190505050611a2f565b6040518082815260200191505060405180910390f35b34801561074857600080fd5b506107756004803603602081101561075f57600080fd5b8101908080359060200190929190505050611c6c565b604051808273ffffffffffffffffffffffffffffffffffffffff1673ffffffffffffffffffffffffffffffffffffffff16815260200191505060405180910390f35b3480156107c357600080fd5b506107f0600480360360208110156107da57600080fd5b8101908080359060200190929190505050611d37565b604051808460ff1660ff168152602001836affffffffffffffffffffff166affffffffffffffffffffff1681526020018273ffffffffffffffffffffffffffffffffffffffff1673ffffffffffffffffffffffffffffffffffffffff168152602001935050505060405180910390f35b34801561086c57600080fd5b50610875611da5565b604051808215151515815260200191505060405180910390f35b34801561089b57600080fd5b506108de600480360360208110156108b257600080fd5b81019080803573ffffffffffffffffffffffffffffffffffffffff169060200190929190505050611dc3565b6040518082815260200191505060405180910390f35b61094d6004803603606081101561090a57600080fd5b8101908080359060200190929190803573ffffffffffffffffffffffffffffffffffffffff169060200190929190803560ff169060200190929190505050611e91565b005b34801561095b57600080fd5b50610964611ff1565b604051808273ffffffffffffffffffffffffffffffffffffffff1673ffffffffffffffffffffffffffffffffffffffff16815260200191505060405180910390f35b3480156109b257600080fd5b506109bb612017565b005b3480156109c957600080fd5b506109d2612115565b6040518082815260200191505060405180910390f35b3480156109f457600080fd5b506109fd61211b565b60405180827bffffffffffffffffffffffffffffffffffffffffffffffffffffffff19167bffffffffffffffffffffffffffffffffffffffffffffffffffffffff1916815260200191505060405180910390f35b348015610a5d57600080fd5b50610a9760048036036040811015610a7457600080fd5b8101908080359060200190929190803560ff169060200190929190505050612142565b005b348015610aa557600080fd5b50610aae612355565b6040518082815260200191505060405180910390f35b348015610ad057600080fd5b50610b1f60048036036040811015610ae757600080fd5b81019080803573ffffffffffffffffffffffffffffffffffffffff16906020019092919080351515906020019092919050505061235b565b005b348015610b2d57600080fd5b50610b366124fe565b604051808273ffffffffffffffffffffffffffffffffffffffff1673ffffffffffffffffffffffffffffffffffffffff16815260200191505060405180910390f35b348015610b8457600080fd5b50610bb160048036036020811015610b9b57600080fd5b8101908080359060200190929190505050612524565b604051808473ffffffffffffffffffffffffffffffffffffffff1673ffffffffffffffffffffffffffffffffffffffff1681526020018381526020018260ff1660ff168152602001935050505060405180910390f35b348015610c1357600080fd5b50610d1760048036036080811015610c2a57600080fd5b81019080803573ffffffffffffffffffffffffffffffffffffffff169060200190929190803573ffffffffffffffffffffffffffffffffffffffff1690602001909291908035906020019092919080359060200190640100000000811115610c9157600080fd5b820183602082011115610ca357600080fd5b80359060200191846001830284011164010000000083111715610cc557600080fd5b91908080601f016020809104026020016040519081016040528093929190818152602001838380828437600081840152601f19601f820116905080830192505050505050509192919290505050612671565b005b610d9060048036036020811015610d2f57600080fd5b8101908080359060200190640100000000811115610d4c57600080fd5b820183602082011115610d5e57600080fd5b80359060200191846020830284011164010000000083111715610d8057600080fd5b90919293919293905050506126e3565b6040518080602001828103825283818151815260200191508051906020019060200280838360005b83811015610dd3578082015181840152602081019050610db8565b505050509050019250505060405180910390f35b348015610df357600080fd5b50610dfc612b5e565b6040518082815260200191505060405180910390f35b348015610e1e57600080fd5b50610e4b60048036036020811015610e3557600080fd5b8101908080359060200190929190505050612b64565b6040518082815260200191505060405180910390f35b348015610e6d57600080fd5b50610ed060048036036040811015610e8457600080fd5b81019080803573ffffffffffffffffffffffffffffffffffffffff169060200190929190803573ffffffffffffffffffffffffffffffffffffffff169060200190929190505050612b79565b604051808215151515815260200191505060405180910390f35b348015610ef657600080fd5b50610eff612c0d565b6040518082815260200191505060405180910390f35b610f6e60048036036060811015610f2b57600080fd5b8101908080359060200190929190803573ffffffffffffffffffffffffffffffffffffffff169060200190929190803560ff169060200190929190505050612c13565b005b348015610f7c57600080fd5b50610fa960048036036020811015610f9357600080fd5b8101908080359060200190929190505050612d74565b604051808473ffffffffffffffffffffffffffffffffffffffff1673ffffffffffffffffffffffffffffffffffffffff168152602001836affffffffffffffffffffff166affffffffffffffffffffff1681526020018260ff1660ff168152602001935050505060405180910390f35b34801561102557600080fd5b506110686004803603602081101561103c57600080fd5b81019080803573ffffffffffffffffffffffffffffffffffffffff169060200190929190505050612f19565b005b6111e06004803603608081101561108057600080fd5b810190808035906020019064010000000081111561109d57600080fd5b8201836020820111156110af57600080fd5b803590602001918460208302840111640100000000831117156110d157600080fd5b9091929391929390803590602001906401000000008111156110f257600080fd5b82018360208201111561110457600080fd5b8035906020019184602083028401116401000000008311171561112657600080fd5b90919293919293908035906020019064010000000081111561114757600080fd5b82018360208201111561115957600080fd5b8035906020019184602083028401116401000000008311171561117b57600080fd5b90919293919293908035906020019064010000000081111561119c57600080fd5b8201836020820111156111ae57600080fd5b803590602001918460208302840111640100000000831117156111d057600080fd5b9091929391929390505050613100565b005b6000806000837bffffffffffffffffffffffffffffffffffffffffffffffffffffffff19167bffffffffffffffffffffffffffffffffffffffffffffffffffffffff1916815260200190815260200160002060009054906101000a900460ff169050919050565b600061125482613491565b6112a9576040517f08c379a000000000000000000000000000000000000000000000000000000000815260040180806020018281038252602c8152602001806144b5602c913960400191505060405180910390fd5b6002600083815260200190815260200160002060009054906101000a900473ffffffffffffffffffffffffffffffffffffffff169050919050565b60006112ef82611c6c565b90508073ffffffffffffffffffffffffffffffffffffffff168373ffffffffffffffffffffffffffffffffffffffff161415611376576040517f08c379a00000000000000000000000000000000000000000000000000000000081526004018080602001828103825260218152602001806145366021913960400191505060405180910390fd5b8073ffffffffffffffffffffffffffffffffffffffff163373ffffffffffffffffffffffffffffffffffffffff1614806113b657506113b58133612b79565b5b61140b576040517f08c379a00000000000000000000000000000000000000000000000000000000081526004018080602001828103825260388152602001806144076038913960400191505060405180910390fd5b826002600084815260200190815260200160002060006101000a81548173ffffffffffffffffffffffffffffffffffffffff021916908373ffffffffffffffffffffffffffffffffffffffff160217905550818373ffffffffffffffffffffffffffffffffffffffff168273ffffffffffffffffffffffffffffffffffffffff167f8c5be1e5ebec7d5bd14f71427d1e84f3dd0314c0f7b2291e5b200ac8c7c3b92560405160405180910390a4505050565b60065481565b6114cd3382613506565b611522576040517f08c379a00000000000000000000000000000000000000000000000000000000081526004018080602001828103825260318152602001806145576031913960400191505060405180910390fd5b61152d8383836135fa565b505050565b600a5481565b60075481565b61155983838360405180602001604052806000815250612671565b505050565b6060806060600d60009054906101000a900473ffffffffffffffffffffffffffffffffffffffff1673ffffffffffffffffffffffffffffffffffffffff163373ffffffffffffffffffffffffffffffffffffffff1614611626576040517f08c379a00000000000000000000000000000000000000000000000000000000081526004018080602001828103825260128152602001807f4d75737420626520676174656b6565706572000000000000000000000000000081525060200191505060405180910390fd5b848490506040519080825280602002602001820160405280156116585781602001602082028038833980820191505090505b5092508484905060405190808252806020026020018201604052801561168d5781602001602082028038833980820191505090505b509150848490506040519080825280602002602001820160405280156116c25781602001602082028038833980820191505090505b509050600080600090505b868690508110156117d9576116f38787838181106116e757fe5b90506020020135612d74565b816affffffffffffffffffffff16915087848151811061170f57fe5b6020026020010187858151811061172257fe5b6020026020010187868151811061173557fe5b602002602001018360ff1660ff16815250838152508373ffffffffffffffffffffffffffffffffffffffff1673ffffffffffffffffffffffffffffffffffffffff168152505050506117ac85828151811061178c57fe5b60200260200101518888848181106117a057fe5b90506020020135613869565b6117c88482815181106117bb57fe5b6020026020010151611829565b8201915080806001019150506116cd565b503373ffffffffffffffffffffffffffffffffffffffff166108fc829081150290604051600060405180830381858888f19350505050158015611820573d6000803e3d6000fd5b50509250925092565b60006103e882029050919050565b600560009054906101000a900473ffffffffffffffffffffffffffffffffffffffff1673ffffffffffffffffffffffffffffffffffffffff163373ffffffffffffffffffffffffffffffffffffffff16146118fa576040517f08c379a00000000000000000000000000000000000000000000000000000000081526004018080602001828103825260138152602001807f4d757374206265206775696c646d61737465720000000000000000000000000081525060200191505060405180910390fd5b6006544310611954576040517f08c379a000000000000000000000000000000000000000000000000000000000815260040180806020018281038252603a8152602001806145e2603a913960400191505060405180910390fd5b600654816fffffffffffffffffffffffffffffffff16116119c0576040517f08c379a00000000000000000000000000000000000000000000000000000000081526004018080602001828103825260358152602001806145886035913960400191505060405180910390fd5b7f8774aa9221f02a7971c04902013456be92b6a521a2347a44ec6610e4b9a5d8fc6006548260405180838152602001826fffffffffffffffffffffffffffffffff1681526020019250505060405180910390a1806fffffffffffffffffffffffffffffffff1660068190555050565b6000600654431015611aa9576040517f08c379a00000000000000000000000000000000000000000000000000000000081526004018080602001828103825260118152602001807f53616c65206e6f74206f70656e2079657400000000000000000000000000000081525060200191505060405180910390fd5b600754600654014310611b24576040517f08c379a000000000000000000000000000000000000000000000000000000000815260040180806020018281038252600b8152602001807f53616c6520636c6f73656400000000000000000000000000000000000000000081525060200191505060405180910390fd5b600c549050600c600081548092919060010191905055506000611b4b823385600954613a1d565b600960008291905055819250505080341015611bcf576040517f08c379a00000000000000000000000000000000000000000000000000000000081526004018080602001828103825260158152602001807f4e6f7420656e6f7567682065746820746f20706179000000000000000000000081525060200191505060405180910390fd5b611bd881613ae4565b611bf46000338460405180602001604052806000815250613b43565b611c66576040517f08c379a00000000000000000000000000000000000000000000000000000000081526004018080602001828103825260138152602001807f4d75737420737570706f7274206572633732310000000000000000000000000081525060200191505060405180910390fd5b50919050565b60008060016000848152602001908152602001600020600001600c9054906101000a900473ffffffffffffffffffffffffffffffffffffffff169050600073ffffffffffffffffffffffffffffffffffffffff168173ffffffffffffffffffffffffffffffffffffffff161415611d2e576040517f08c379a000000000000000000000000000000000000000000000000000000000815260040180806020018281038252602981526020018061448c6029913960400191505060405180910390fd5b80915050919050565b60016020528060005260406000206000915090508060000160009054906101000a900460ff16908060000160019054906101000a90046affffffffffffffffffffff169080600001600c9054906101000a900473ffffffffffffffffffffffffffffffffffffffff16905083565b60006006544310158015611dbe57506007546006540143105b905090565b60008073ffffffffffffffffffffffffffffffffffffffff168273ffffffffffffffffffffffffffffffffffffffff161415611e4a576040517f08c379a000000000000000000000000000000000000000000000000000000000815260040180806020018281038252602a815260200180614462602a913960400191505060405180910390fd5b600360008373ffffffffffffffffffffffffffffffffffffffff1673ffffffffffffffffffffffffffffffffffffffff168152602001908152602001600020549050919050565b600560009054906101000a900473ffffffffffffffffffffffffffffffffffffffff1673ffffffffffffffffffffffffffffffffffffffff163373ffffffffffffffffffffffffffffffffffffffff1614611f54576040517f08c379a00000000000000000000000000000000000000000000000000000000081526004018080602001828103825260138152602001807f4d757374206265206775696c646d61737465720000000000000000000000000081525060200191505060405180910390fd5b600083118015611f665750600b548311155b611fd8576040517f08c379a00000000000000000000000000000000000000000000000000000000081526004018080602001828103825260148152602001807f496e76616c6964206578636c757369766520494400000000000000000000000081525060200191505060405180910390fd5b611fec8383611fe634612b64565b84613d4e565b505050565b600560009054906101000a900473ffffffffffffffffffffffffffffffffffffffff1681565b600560009054906101000a900473ffffffffffffffffffffffffffffffffffffffff1673ffffffffffffffffffffffffffffffffffffffff163373ffffffffffffffffffffffffffffffffffffffff16146120da576040517f08c379a00000000000000000000000000000000000000000000000000000000081526004018080602001828103825260138152602001807f4d757374206265206775696c646d61737465720000000000000000000000000081525060200191505060405180910390fd5b600560009054906101000a900473ffffffffffffffffffffffffffffffffffffffff1673ffffffffffffffffffffffffffffffffffffffff16ff5b60085481565b634df71efb7c01000000000000000000000000000000000000000000000000000000000281565b600060ff168160ff1611801561215f5750600460ff168160ff1611155b6121d1576040517f08c379a000000000000000000000000000000000000000000000000000000000815260040180806020018281038252601c8152602001807f4d7573742063686f6f736520612076616c696420616666696e6974790000000081525060200191505060405180910390fd5b6000806121dd84612d74565b92505091508173ffffffffffffffffffffffffffffffffffffffff163373ffffffffffffffffffffffffffffffffffffffff1614612266576040517f08c379a00000000000000000000000000000000000000000000000000000000081526004018080602001828103825260218152602001806142c86021913960400191505060405180910390fd5b600060ff168160ff16146122e2576040517f08c379a00000000000000000000000000000000000000000000000000000000081526004018080602001828103825260208152602001807f416666696e6974792063616e206f6e6c792062652063686f73656e206f6e636581525060200191505060405180910390fd5b826001600086815260200190815260200160002060000160006101000a81548160ff021916908360ff160217905550837f0f0bc6913c78f45e890c2265a362fd955a202a954142552907cb83e4ef9f409a84604051808260ff1660ff16815260200191505060405180910390a250505050565b600b5481565b3373ffffffffffffffffffffffffffffffffffffffff168273ffffffffffffffffffffffffffffffffffffffff1614156123fd576040517f08c379a00000000000000000000000000000000000000000000000000000000081526004018080602001828103825260198152602001807f4552433732313a20617070726f766520746f2063616c6c65720000000000000081525060200191505060405180910390fd5b80600460003373ffffffffffffffffffffffffffffffffffffffff1673ffffffffffffffffffffffffffffffffffffffff16815260200190815260200160002060008473ffffffffffffffffffffffffffffffffffffffff1673ffffffffffffffffffffffffffffffffffffffff16815260200190815260200160002060006101000a81548160ff0219169083151502179055508173ffffffffffffffffffffffffffffffffffffffff163373ffffffffffffffffffffffffffffffffffffffff167f17307eab39ab6107e8899845ad3d59bd9653f200f220920489ca2b5937696c3183604051808215151515815260200191505060405180910390a35050565b600d60009054906101000a900473ffffffffffffffffffffffffffffffffffffffff1681565b6000806000600d60009054906101000a900473ffffffffffffffffffffffffffffffffffffffff1673ffffffffffffffffffffffffffffffffffffffff163373ffffffffffffffffffffffffffffffffffffffff16146125ec576040517f08c379a00000000000000000000000000000000000000000000000000000000081526004018080602001828103825260128152602001807f4d75737420626520676174656b6565706572000000000000000000000000000081525060200191505060405180910390fd5b6125f584612d74565b816affffffffffffffffffffff16915080935081945082955050505061261b8385613869565b3373ffffffffffffffffffffffffffffffffffffffff166108fc61263e84611829565b9081150290604051600060405180830381858888f19350505050158015612669573d6000803e3d6000fd5b509193909250565b61267c8484846114c3565b61268884848484613b43565b6126dd576040517f08c379a00000000000000000000000000000000000000000000000000000000081526004018080602001828103825260328152602001806142e96032913960400191505060405180910390fd5b50505050565b606060065443101561275d576040517f08c379a00000000000000000000000000000000000000000000000000000000081526004018080602001828103825260118152602001807f53616c65206e6f74206f70656e2079657400000000000000000000000000000081525060200191505060405180910390fd5b6007546006540143106127d8576040517f08c379a000000000000000000000000000000000000000000000000000000000815260040180806020018281038252600b8152602001807f53616c6520636c6f73656400000000000000000000000000000000000000000081525060200191505060405180910390fd5b8282905060405190808252806020026020018201604052801561280a5781602001602082028038833980820191505090505b50905060008090506000600c5490506000600954905060008090505b868690508110156128a3578285828151811061283e57fe5b6020026020010181815250508280600101935050600061288886838151811061286357fe5b6020026020010151338a8a8681811061287857fe5b9050602002013560ff1686613a1d565b80945081925050508085019450508080600101915050612826565b508060098190555081600c8190555082341015612928576040517f08c379a00000000000000000000000000000000000000000000000000000000081526004018080602001828103825260158152602001807f4e6f7420656e6f7567682065746820746f20706179000000000000000000000081525060200191505060405180910390fd5b612931336141af565b15612b4c5760008090505b8451811015612b4a5760003373ffffffffffffffffffffffffffffffffffffffff1663150b7a0233600089868151811061297257fe5b60200260200101516040518463ffffffff167c0100000000000000000000000000000000000000000000000000000000028152600401808473ffffffffffffffffffffffffffffffffffffffff1673ffffffffffffffffffffffffffffffffffffffff1681526020018373ffffffffffffffffffffffffffffffffffffffff1673ffffffffffffffffffffffffffffffffffffffff16815260200182815260200180602001828103825260008152602001602001945050505050602060405180830381600087803b158015612a4657600080fd5b505af1158015612a5a573d6000803e3d6000fd5b505050506040513d6020811015612a7057600080fd5b8101908080519060200190929190505050905063150b7a027c0100000000000000000000000000000000000000000000000000000000027bffffffffffffffffffffffffffffffffffffffffffffffffffffffff1916817bffffffffffffffffffffffffffffffffffffffffffffffffffffffff191614612b3c576040517f08c379a000000000000000000000000000000000000000000000000000000000815260040180806020018281038252602c81526020018061450a602c913960400191505060405180910390fd5b50808060010191505061293c565b505b612b5583613ae4565b50505092915050565b600c5481565b60006103e88281612b7157fe5b049050919050565b6000600460008473ffffffffffffffffffffffffffffffffffffffff1673ffffffffffffffffffffffffffffffffffffffff16815260200190815260200160002060008373ffffffffffffffffffffffffffffffffffffffff1673ffffffffffffffffffffffffffffffffffffffff16815260200190815260200160002060009054906101000a900460ff16905092915050565b60095481565b600560009054906101000a900473ffffffffffffffffffffffffffffffffffffffff1673ffffffffffffffffffffffffffffffffffffffff163373ffffffffffffffffffffffffffffffffffffffff1614612cd6576040517f08c379a00000000000000000000000000000000000000000000000000000000081526004018080602001828103825260138152602001807f4d757374206265206775696c646d61737465720000000000000000000000000081525060200191505060405180910390fd5b612ce1838383611e91565b612cfd6000838560405180602001604052806000815250613b43565b612d6f576040517f08c379a00000000000000000000000000000000000000000000000000000000081526004018080602001828103825260138152602001807f4d75737420737570706f7274206572633732310000000000000000000000000081525060200191505060405180910390fd5b505050565b6000806000612d81614280565b600160008681526020019081526020016000206040518060600160405290816000820160009054906101000a900460ff1660ff1660ff1681526020016000820160019054906101000a90046affffffffffffffffffffff166affffffffffffffffffffff166affffffffffffffffffffff16815260200160008201600c9054906101000a900473ffffffffffffffffffffffffffffffffffffffff1673ffffffffffffffffffffffffffffffffffffffff1673ffffffffffffffffffffffffffffffffffffffff16815250509050806040015181602001518260000151809450819550829650505050600073ffffffffffffffffffffffffffffffffffffffff16816040015173ffffffffffffffffffffffffffffffffffffffff161415612f11576040517f08c379a00000000000000000000000000000000000000000000000000000000081526004018080602001828103825260158152602001807f57697a61726420646f6573206e6f74206578697374000000000000000000000081525060200191505060405180910390fd5b509193909250565b600560009054906101000a900473ffffffffffffffffffffffffffffffffffffffff1673ffffffffffffffffffffffffffffffffffffffff163373ffffffffffffffffffffffffffffffffffffffff1614612fdc576040517f08c379a00000000000000000000000000000000000000000000000000000000081526004018080602001828103825260138152602001807f4d757374206265206775696c646d61737465720000000000000000000000000081525060200191505060405180910390fd5b600073ffffffffffffffffffffffffffffffffffffffff16600d60009054906101000a900473ffffffffffffffffffffffffffffffffffffffff1673ffffffffffffffffffffffffffffffffffffffff161480156130675750600073ffffffffffffffffffffffffffffffffffffffff168173ffffffffffffffffffffffffffffffffffffffff1614155b6130bc576040517f08c379a000000000000000000000000000000000000000000000000000000000815260040180806020018281038252602381526020018061443f6023913960400191505060405180910390fd5b80600d60006101000a81548173ffffffffffffffffffffffffffffffffffffffff021916908373ffffffffffffffffffffffffffffffffffffffff16021790555050565b600560009054906101000a900473ffffffffffffffffffffffffffffffffffffffff1673ffffffffffffffffffffffffffffffffffffffff163373ffffffffffffffffffffffffffffffffffffffff16146131c3576040517f08c379a00000000000000000000000000000000000000000000000000000000081526004018080602001828103825260138152602001807f4d757374206265206775696c646d61737465720000000000000000000000000081525060200191505060405180910390fd5b85859050888890501480156131dd57508383905086869050145b80156131ee57508181905086869050145b613260576040517f08c379a000000000000000000000000000000000000000000000000000000000815260040180806020018281038252601d8152602001807f4d757374206861766520657175616c206172726179206c656e6774687300000081525060200191505060405180910390fd5b600080905060008090505b898990508110156134245760008a8a8381811061328457fe5b905060200201351180156132ac5750600b548a8a838181106132a257fe5b9050602002013511155b61331e576040517f08c379a00000000000000000000000000000000000000000000000000000000081526004018080602001828103825260148152602001807f496e76616c6964206578636c757369766520494400000000000000000000000081525060200191505060405180910390fd5b600460ff1684848381811061332f57fe5b9050602002013560ff1660ff161115613393576040517f08c379a000000000000000000000000000000000000000000000000000000000815260040180806020018281038252602681526020018061431b6026913960400191505060405180910390fd5b6134008a8a838181106133a257fe5b905060200201358989848181106133b557fe5b9050602002013573ffffffffffffffffffffffffffffffffffffffff168888858181106133de57fe5b905060200201358787868181106133f157fe5b9050602002013560ff16613d4e565b85858281811061340c57fe5b9050602002013582019150808060010191505061326b565b503461342f82611829565b1115613486576040517f08c379a00000000000000000000000000000000000000000000000000000000081526004018080602001828103825260218152602001806143bb6021913960400191505060405180910390fd5b505050505050505050565b60008060016000848152602001908152602001600020600001600c9054906101000a900473ffffffffffffffffffffffffffffffffffffffff169050600073ffffffffffffffffffffffffffffffffffffffff168173ffffffffffffffffffffffffffffffffffffffff161415915050919050565b600061351182613491565b613566576040517f08c379a000000000000000000000000000000000000000000000000000000000815260040180806020018281038252602c81526020018061438f602c913960400191505060405180910390fd5b600061357183611c6c565b90508073ffffffffffffffffffffffffffffffffffffffff168473ffffffffffffffffffffffffffffffffffffffff1614806135e057508373ffffffffffffffffffffffffffffffffffffffff166135c884611249565b73ffffffffffffffffffffffffffffffffffffffff16145b806135f157506135f08185612b79565b5b91505092915050565b8273ffffffffffffffffffffffffffffffffffffffff1661361a82611c6c565b73ffffffffffffffffffffffffffffffffffffffff1614613686576040517f08c379a00000000000000000000000000000000000000000000000000000000081526004018080602001828103825260298152602001806144e16029913960400191505060405180910390fd5b600073ffffffffffffffffffffffffffffffffffffffff168273ffffffffffffffffffffffffffffffffffffffff16141561370c576040517f08c379a000000000000000000000000000000000000000000000000000000000815260040180806020018281038252602481526020018061436b6024913960400191505060405180910390fd5b613715816141c2565b600360008473ffffffffffffffffffffffffffffffffffffffff1673ffffffffffffffffffffffffffffffffffffffff1681526020019081526020016000206000815480929190600190039190505550600360008373ffffffffffffffffffffffffffffffffffffffff1673ffffffffffffffffffffffffffffffffffffffff168152602001908152602001600020600081548092919060010191905055508160016000838152602001908152602001600020600001600c6101000a81548173ffffffffffffffffffffffffffffffffffffffff021916908373ffffffffffffffffffffffffffffffffffffffff160217905550808273ffffffffffffffffffffffffffffffffffffffff168473ffffffffffffffffffffffffffffffffffffffff167fddf252ad1be2c89b69c2b068fc378daa952ba7f163c4a11628f55a4df523b3ef60405160405180910390a4505050565b8173ffffffffffffffffffffffffffffffffffffffff1661388982611c6c565b73ffffffffffffffffffffffffffffffffffffffff16146138f5576040517f08c379a00000000000000000000000000000000000000000000000000000000081526004018080602001828103825260258152602001806145bd6025913960400191505060405180910390fd5b6138fe816141c2565b600360008373ffffffffffffffffffffffffffffffffffffffff1673ffffffffffffffffffffffffffffffffffffffff168152602001908152602001600020600081548092919060019003919050555060016000828152602001908152602001600020600080820160006101000a81549060ff02191690556000820160016101000a8154906affffffffffffffffffffff021916905560008201600c6101000a81549073ffffffffffffffffffffffffffffffffffffffff0219169055505080600073ffffffffffffffffffffffffffffffffffffffff168373ffffffffffffffffffffffffffffffffffffffff167fddf252ad1be2c89b69c2b068fc378daa952ba7f163c4a11628f55a4df523b3ef60405160405180910390a45050565b600080600060ff168460ff16118015613a3d5750600460ff168460ff1611155b613a92576040517f08c379a000000000000000000000000000000000000000000000000000000000815260040180806020018281038252602a815260200180614341602a913960400191505060405180910390fd5b829050600160ff168460ff161415613aae576008549150613ac7565b809150620186a0600a54820281613ac157fe5b04810190505b613adb8686613ad585612b64565b87613d4e565b94509492505050565b600081340390506125e43a02811115613b3f573373ffffffffffffffffffffffffffffffffffffffff166108fc829081150290604051600060405180830381858888f19350505050158015613b3d573d6000803e3d6000fd5b505b5050565b6000613b4e846141af565b613b5b5760019050613d46565b60008473ffffffffffffffffffffffffffffffffffffffff1663150b7a02338887876040518563ffffffff167c0100000000000000000000000000000000000000000000000000000000028152600401808573ffffffffffffffffffffffffffffffffffffffff1673ffffffffffffffffffffffffffffffffffffffff1681526020018473ffffffffffffffffffffffffffffffffffffffff1673ffffffffffffffffffffffffffffffffffffffff16815260200183815260200180602001828103825283818151815260200191508051906020019080838360005b83811015613c52578082015181840152602081019050613c37565b50505050905090810190601f168015613c7f5780820380516001836020036101000a031916815260200191505b5095505050505050602060405180830381600087803b158015613ca157600080fd5b505af1158015613cb5573d6000803e3d6000fd5b505050506040513d6020811015613ccb57600080fd5b8101908080519060200190929190505050905063150b7a027c0100000000000000000000000000000000000000000000000000000000027bffffffffffffffffffffffffffffffffffffffffffffffffffffffff1916817bffffffffffffffffffffffffffffffffffffffffffffffffffffffff1916149150505b949350505050565b613d5784613491565b15613dca576040517f08c379a00000000000000000000000000000000000000000000000000000000081526004018080602001828103825260158152602001807f43616e27742072657573652057697a617264204944000000000000000000000081525060200191505060405180910390fd5b600073ffffffffffffffffffffffffffffffffffffffff168373ffffffffffffffffffffffffffffffffffffffff161415613e6d576040517f08c379a00000000000000000000000000000000000000000000000000000000081526004018080602001828103825260188152602001807f4f776e65722061646472657373206d757374206578697374000000000000000081525060200191505060405180910390fd5b60008211613ee3576040517f08c379a000000000000000000000000000000000000000000000000000000000815260040180806020018281038252601a8152602001807f57697a61726420706f776572206d757374206265206e6f6e2d3000000000000081525060200191505060405180910390fd5b6b0100000000000000000000008210613f47576040517f08c379a000000000000000000000000000000000000000000000000000000000815260040180806020018281038252602b8152602001806143dc602b913960400191505060405180910390fd5b600460ff168160ff161115613fc4576040517f08c379a000000000000000000000000000000000000000000000000000000000815260040180806020018281038252601a8152602001807f496e76616c696420656c656d656e74616c20616666696e69747900000000000081525060200191505060405180910390fd5b60405180606001604052808260ff168152602001836affffffffffffffffffffff1681526020018473ffffffffffffffffffffffffffffffffffffffff168152506001600086815260200190815260200160002060008201518160000160006101000a81548160ff021916908360ff16021790555060208201518160000160016101000a8154816affffffffffffffffffffff02191690836affffffffffffffffffffff160217905550604082015181600001600c6101000a81548173ffffffffffffffffffffffffffffffffffffffff021916908373ffffffffffffffffffffffffffffffffffffffff160217905550905050600360008473ffffffffffffffffffffffffffffffffffffffff1673ffffffffffffffffffffffffffffffffffffffff16815260200190815260200160002060008154809291906001019190505550838373ffffffffffffffffffffffffffffffffffffffff16600073ffffffffffffffffffffffffffffffffffffffff167fddf252ad1be2c89b69c2b068fc378daa952ba7f163c4a11628f55a4df523b3ef60405160405180910390a4837f7c0fbd69c04ea8ef6f62724eebd9c311d984e86457a801d81c0cb52ec90391708284604051808360ff1660ff1681526020018281526020019250505060405180910390a250505050565b600080823b905060008111915050919050565b600073ffffffffffffffffffffffffffffffffffffffff166002600083815260200190815260200160002060009054906101000a900473ffffffffffffffffffffffffffffffffffffffff1673ffffffffffffffffffffffffffffffffffffffff161461427d5760006002600083815260200190815260200160002060006101000a81548173ffffffffffffffffffffffffffffffffffffffff021916908373ffffffffffffffffffffffffffffffffffffffff1602179055505b50565b6040518060600160405280600060ff16815260200160006affffffffffffffffffffff168152602001600073ffffffffffffffffffffffffffffffffffffffff168152509056fe416666696e6974792063616e206f6e6c7920626520736574206279206f776e65724552433732313a207472616e7366657220746f206e6f6e20455243373231526563656976657220696d706c656d656e7465724d7573742063686f6f736520612076616c696420656c656d656e74616c20616666696e6974794e6f6e2d6578636c75736976652057697a61726473206e6565642061207265616c20616666696e6974794552433732313a207472616e7366657220746f20746865207a65726f20616464726573734552433732313a206f70657261746f7220717565727920666f72206e6f6e6578697374656e7420746f6b656e4d7573742070617920666f7220706f77657220696e20616c6c2057697a6172647357697a61726420706f776572206d7573742066697420696e2038382062697473206f662073746f726167654552433732313a20617070726f76652063616c6c6572206973206e6f74206f776e6572206e6f7220617070726f76656420666f7220616c6c43616e206f6e6c7920736574206f6e636520616e64206d757374206e6f7420626520304552433732313a2062616c616e636520717565727920666f7220746865207a65726f20616464726573734552433732313a206f776e657220717565727920666f72206e6f6e6578697374656e7420746f6b656e4552433732313a20617070726f76656420717565727920666f72206e6f6e6578697374656e7420746f6b656e4552433732313a207472616e73666572206f6620746f6b656e2074686174206973206e6f74206f776e436f6e7472616374206f776e6572206469646e27742061636365707420455243373231207472616e736665724552433732313a20617070726f76616c20746f2063757272656e74206f776e65724552433732313a207472616e736665722063616c6c6572206973206e6f74206f776e6572206e6f7220617070726f7665644e65772073746172742074696d65206d757374206265206c61746572207468616e2070726576696f75732073746172742074696d654552433732313a206275726e206f6620746f6b656e2074686174206973206e6f74206f776e53616c652073746172742074696d65206f6e6c792061646a75737461626c65206265666f72652070726576696f75732073746172742074696d65a165627a7a72305820de1f2feb0596bfed84a882fe6d28cf758425c030b9befd9308a1c948023aff8000295374617274206d7573742062652067726561746572207468616e2063757272656e7420626c6f636b",
  "source": "pragma solidity ^0.5.2;\n\n/**\n * @title IERC165\n * @dev https://eips.ethereum.org/EIPS/eip-165\n */\ninterface IERC165 {\n    /**\n     * @notice Query if a contract implements an interface\n     * @param interfaceId The interface identifier, as specified in ERC-165\n     * @dev Interface identification is specified in ERC-165. This function\n     * uses less than 30,000 gas.\n     */\n    function supportsInterface(bytes4 interfaceId) external view returns (bool);\n}\n\n\n/// @title Shared constants used throughout the Cheeze Wizards contracts\ncontract WizardConstants {\n    // Wizards normally have their affinity set when they are first created,\n    // but for example Exclusive Wizards can be created with no set affinity.\n    // In this case the affinity can be set by the owner.\n    uint8 internal constant ELEMENT_NOTSET = 0; //000\n    // A neutral Wizard has no particular strength or weakness with specific\n    // elements.\n    uint8 internal constant ELEMENT_NEUTRAL = 1; //001\n    // The fire, water and wind elements are used both to reflect an affinity\n    // of Elemental Wizards for a specific element, and as the moves a\n    // Wizard can make during a duel.\n    // Note thta if these values change then `moveMask` and `moveDelta` in\n    // ThreeAffinityDuelResolver would need to be updated accordingly.\n    uint8 internal constant ELEMENT_FIRE = 2; //010\n    uint8 internal constant ELEMENT_WATER = 3; //011\n    uint8 internal constant ELEMENT_WIND = 4; //100\n    uint8 internal constant MAX_ELEMENT = ELEMENT_WIND;\n}\n\n\n\n\n\n\n\n\n/**\n * @title ERC721 Non-Fungible Token Standard basic interface\n * @dev see https://eips.ethereum.org/EIPS/eip-721\n */\ncontract IERC721 is IERC165 {\n    event Transfer(address indexed from, address indexed to, uint256 indexed tokenId);\n    event Approval(address indexed owner, address indexed approved, uint256 indexed tokenId);\n    event ApprovalForAll(address indexed owner, address indexed operator, bool approved);\n\n    function balanceOf(address owner) public view returns (uint256 balance);\n    function ownerOf(uint256 tokenId) public view returns (address owner);\n\n    function approve(address to, uint256 tokenId) public;\n    function getApproved(uint256 tokenId) public view returns (address operator);\n\n    function setApprovalForAll(address operator, bool _approved) public;\n    function isApprovedForAll(address owner, address operator) public view returns (bool);\n\n    function transferFrom(address from, address to, uint256 tokenId) public;\n    function safeTransferFrom(address from, address to, uint256 tokenId) public;\n\n    function safeTransferFrom(address from, address to, uint256 tokenId, bytes memory data) public;\n}\n\n\n\n/**\n * @title ERC721 token receiver interface\n * @dev Interface for any contract that wants to support safeTransfers\n * from ERC721 asset contracts.\n */\ncontract IERC721Receiver {\n    /**\n     * @notice Handle the receipt of an NFT\n     * @dev The ERC721 smart contract calls this function on the recipient\n     * after a `safeTransfer`. This function MUST return the function selector,\n     * otherwise the caller will revert the transaction. The selector to be\n     * returned can be obtained as `this.onERC721Received.selector`. This\n     * function MAY throw to revert and reject the transfer.\n     * Note: the ERC721 contract address is always the message sender.\n     * @param operator The address which called `safeTransferFrom` function\n     * @param from The address which previously owned the token\n     * @param tokenId The NFT identifier which is being transferred\n     * @param data Additional data with no specified format\n     * @return bytes4 `bytes4(keccak256(\"onERC721Received(address,address,uint256,bytes)\"))`\n     */\n    function onERC721Received(address operator, address from, uint256 tokenId, bytes memory data)\n    public returns (bytes4);\n}\n\n\n\n\n\n/**\n * @title ERC165\n * @author Matt Condon (@shrugs)\n * @dev Implements ERC165 using a lookup table.\n */\ncontract ERC165 is IERC165 {\n    bytes4 private constant _INTERFACE_ID_ERC165 = 0x01ffc9a7;\n    /*\n     * 0x01ffc9a7 ===\n     *     bytes4(keccak256('supportsInterface(bytes4)'))\n     */\n\n    /**\n     * @dev a mapping of interface id to whether or not it's supported\n     */\n    mapping(bytes4 => bool) private _supportedInterfaces;\n\n    /**\n     * @dev A contract implementing SupportsInterfaceWithLookup\n     * implement ERC165 itself\n     */\n    constructor () internal {\n        _registerInterface(_INTERFACE_ID_ERC165);\n    }\n\n    /**\n     * @dev implement supportsInterface(bytes4) using a lookup table\n     */\n    function supportsInterface(bytes4 interfaceId) external view returns (bool) {\n        return _supportedInterfaces[interfaceId];\n    }\n\n    /**\n     * @dev internal method for registering an interface\n     */\n    function _registerInterface(bytes4 interfaceId) internal {\n        require(interfaceId != 0xffffffff);\n        _supportedInterfaces[interfaceId] = true;\n    }\n}\n\n\n\n/// Utility library of inline functions on address payables.\n/// Modified from original by OpenZeppelin.\ncontract Address {\n    /// @notice Returns whether the target address is a contract.\n    /// @dev This function will return false if invoked during the constructor of a contract,\n    /// as the code is not actually created until after the constructor finishes.\n    /// @param account address of the account to check\n    /// @return whether the target address is a contract\n    function isContract(address account) internal view returns (bool) {\n        uint256 size;\n        // XXX Currently there is no better way to check if there is a contract in an address\n        // than to check the size of the code at that address.\n        // See https://ethereum.stackexchange.com/a/14016/36603\n        // for more details about how this works.\n        // TODO Check this again before the Serenity release, because all addresses will be\n        // contracts then.\n        // solhint-disable-next-line no-inline-assembly\n        assembly { size := extcodesize(account) } // solium-disable-line security/no-inline-assembly\n        return size > 0;\n    }\n}\n\n\n\n/**\n * @title WizardPresaleNFT\n * @notice The basic ERC-721 functionality for storing the presale Wizard NFTs.\n *     Derived from: https://github.com/OpenZeppelin/openzeppelin-solidity/tree/v2.2.0\n */\ncontract WizardPresaleNFT is ERC165, IERC721, Address {\n\n    event Transfer(address indexed from, address indexed to, uint256 indexed tokenId);\n    event Approval(address indexed owner, address indexed approved, uint256 indexed tokenId);\n    event ApprovalForAll(address indexed owner, address indexed operator, bool approved);\n\n    /// @notice Emitted when a wizard token is created.\n    event WizardSummoned(uint256 indexed tokenId, uint8 element, uint256 power);\n\n    /// @notice Emitted when a wizard change element. Should only happen once and for wizards\n    ///         that previously had the element undefined.\n    event WizardAlignmentAssigned(uint256 indexed tokenId, uint8 element);\n\n    // Equals to `bytes4(keccak256(\"onERC721Received(address,address,uint256,bytes)\"))`\n    // which can be also obtained as `IERC721Receiver(0).onERC721Received.selector`\n    bytes4 internal constant _ERC721_RECEIVED = 0x150b7a02;\n\n    /// @dev The presale Wizard structure.\n    ///  Fits in one word\n    struct Wizard {\n        // NOTE: Changing the order or meaning of any of these fields requires an update\n        //   to the _createWizard() function which assumes a specific order for these fields.\n        uint8 affinity;\n        uint88 power;\n        address owner;\n    }\n\n    // Mapping from Wizard ID to Wizard struct\n    mapping (uint256 => Wizard) public _wizardsById;\n\n    // Mapping from token ID to approved address\n    mapping (uint256 => address) private _tokenApprovals;\n\n    // Mapping from owner to number of owned token\n    mapping (address => uint256) internal _ownedTokensCount;\n\n    // Mapping from owner to operator approvals\n    mapping (address => mapping (address => bool)) private _operatorApprovals;\n\n    bytes4 private constant _INTERFACE_ID_ERC721 = 0x80ac58cd;\n    /*\n     * 0x80ac58cd ===\n     *     bytes4(keccak256('balanceOf(address)')) ^\n     *     bytes4(keccak256('ownerOf(uint256)')) ^\n     *     bytes4(keccak256('approve(address,uint256)')) ^\n     *     bytes4(keccak256('getApproved(uint256)')) ^\n     *     bytes4(keccak256('setApprovalForAll(address,bool)')) ^\n     *     bytes4(keccak256('isApprovedForAll(address,address)')) ^\n     *     bytes4(keccak256('transferFrom(address,address,uint256)')) ^\n     *     bytes4(keccak256('safeTransferFrom(address,address,uint256)')) ^\n     *     bytes4(keccak256('safeTransferFrom(address,address,uint256,bytes)'))\n     */\n\n    constructor () public {\n        // register the supported interfaces to conform to ERC721 via ERC165\n        _registerInterface(_INTERFACE_ID_ERC721);\n    }\n\n    /**\n     * @dev Gets the balance of the specified address\n     * @param owner address to query the balance of\n     * @return uint256 representing the amount owned by the passed address\n     */\n    function balanceOf(address owner) public view returns (uint256) {\n        require(owner != address(0), \"ERC721: balance query for the zero address\");\n        return _ownedTokensCount[owner];\n    }\n\n    /**\n     * @dev Gets the owner of the specified token ID\n     * @param tokenId uint256 ID of the token to query the owner of\n     * @return address currently marked as the owner of the given token ID\n     */\n    function ownerOf(uint256 tokenId) public view returns (address) {\n        address owner = _wizardsById[tokenId].owner;\n        require(owner != address(0), \"ERC721: owner query for nonexistent token\");\n        return owner;\n    }\n\n    /**\n     * @dev Approves another address to transfer the given token ID\n     * The zero address indicates there is no approved address.\n     * There can only be one approved address per token at a given time.\n     * Can only be called by the token owner or an approved operator.\n     * @param to address to be approved for the given token ID\n     * @param tokenId uint256 ID of the token to be approved\n     */\n    function approve(address to, uint256 tokenId) public {\n        address owner = ownerOf(tokenId);\n        require(to != owner, \"ERC721: approval to current owner\");\n        require(\n            msg.sender == owner || isApprovedForAll(owner, msg.sender),\n            \"ERC721: approve caller is not owner nor approved for all\"\n        );\n\n        _tokenApprovals[tokenId] = to;\n        emit Approval(owner, to, tokenId);\n    }\n\n    /**\n     * @dev Gets the approved address for a token ID, or zero if no address set\n     * Reverts if the token ID does not exist.\n     * @param tokenId uint256 ID of the token to query the approval of\n     * @return address currently approved for the given token ID\n     */\n    function getApproved(uint256 tokenId) public view returns (address) {\n        require(_exists(tokenId), \"ERC721: approved query for nonexistent token\");\n        return _tokenApprovals[tokenId];\n    }\n\n    /**\n     * @dev Sets or unsets the approval of a given operator\n     * An operator is allowed to transfer all tokens of the sender on their behalf\n     * @param to operator address to set the approval\n     * @param approved representing the status of the approval to be set\n     */\n    function setApprovalForAll(address to, bool approved) public {\n        require(to != msg.sender, \"ERC721: approve to caller\");\n        _operatorApprovals[msg.sender][to] = approved;\n        emit ApprovalForAll(msg.sender, to, approved);\n    }\n\n    /**\n     * @dev Tells whether an operator is approved by a given owner\n     * @param owner owner address which you want to query the approval of\n     * @param operator operator address which you want to query the approval of\n     * @return bool whether the given operator is approved by the given owner\n     */\n    function isApprovedForAll(address owner, address operator) public view returns (bool) {\n        return _operatorApprovals[owner][operator];\n    }\n\n    /**\n     * @dev Transfers the ownership of a given token ID to another address\n     * Usage of this method is discouraged, use `safeTransferFrom` whenever possible\n     * Requires the msg.sender to be the owner, approved, or operator\n     * @param from current owner of the token\n     * @param to address to receive the ownership of the given token ID\n     * @param tokenId uint256 ID of the token to be transferred\n     */\n    function transferFrom(address from, address to, uint256 tokenId) public {\n        require(_isApprovedOrOwner(msg.sender, tokenId), \"ERC721: transfer caller is not owner nor approved\");\n\n        _transferFrom(from, to, tokenId);\n    }\n\n    /**\n     * @dev Safely transfers the ownership of a given token ID to another address\n     * If the target address is a contract, it must implement `onERC721Received`,\n     * which is called upon a safe transfer, and return the magic value\n     * `bytes4(keccak256(\"onERC721Received(address,address,uint256,bytes)\"))`; otherwise,\n     * the transfer is reverted.\n     * Requires the msg.sender to be the owner, approved, or operator\n     * @param from current owner of the token\n     * @param to address to receive the ownership of the given token ID\n     * @param tokenId uint256 ID of the token to be transferred\n     */\n    function safeTransferFrom(address from, address to, uint256 tokenId) public {\n        safeTransferFrom(from, to, tokenId, \"\");\n    }\n\n    /**\n     * @dev Safely transfers the ownership of a given token ID to another address\n     * If the target address is a contract, it must implement `onERC721Received`,\n     * which is called upon a safe transfer, and return the magic value\n     * `bytes4(keccak256(\"onERC721Received(address,address,uint256,bytes)\"))`; otherwise,\n     * the transfer is reverted.\n     * Requires the msg.sender to be the owner, approved, or operator\n     * @param from current owner of the token\n     * @param to address to receive the ownership of the given token ID\n     * @param tokenId uint256 ID of the token to be transferred\n     * @param _data bytes data to send along with a safe transfer check\n     */\n    function safeTransferFrom(address from, address to, uint256 tokenId, bytes memory _data) public {\n        transferFrom(from, to, tokenId);\n        require(_checkOnERC721Received(from, to, tokenId, _data), \"ERC721: transfer to non ERC721Receiver implementer\");\n    }\n\n    /**\n     * @dev Returns whether the specified token exists\n     * @param tokenId uint256 ID of the token to query the existence of\n     * @return bool whether the token exists\n     */\n    function _exists(uint256 tokenId) internal view returns (bool) {\n        address owner = _wizardsById[tokenId].owner;\n        return owner != address(0);\n    }\n\n    /**\n     * @dev Returns whether the given spender can transfer a given token ID\n     * @param spender address of the spender to query\n     * @param tokenId uint256 ID of the token to be transferred\n     * @return bool whether the msg.sender is approved for the given token ID,\n     * is an operator of the owner, or is the owner of the token\n     */\n    function _isApprovedOrOwner(address spender, uint256 tokenId) internal view returns (bool) {\n        require(_exists(tokenId), \"ERC721: operator query for nonexistent token\");\n        address owner = ownerOf(tokenId);\n        return (spender == owner || getApproved(tokenId) == spender || isApprovedForAll(owner, spender));\n    }\n\n    /**\n     * @dev Internal function to burn a specific token\n     * Reverts if the token does not exist\n     * Deprecated, use _burn(uint256) instead.\n     * @param owner owner of the token to burn\n     * @param tokenId uint256 ID of the token being burned\n     */\n    function _burn(address owner, uint256 tokenId) internal {\n        require(ownerOf(tokenId) == owner, \"ERC721: burn of token that is not own\");\n\n        _clearApproval(tokenId);\n\n        _ownedTokensCount[owner]--;\n        // delete the entire object to recover the most gas\n        delete _wizardsById[tokenId];\n\n        // required for ERC721 compatibility\n        emit Transfer(owner, address(0), tokenId);\n    }\n\n    /**\n     * @dev Internal function to burn a specific token\n     * Reverts if the token does not exist\n     * @param tokenId uint256 ID of the token being burned\n     */\n    function _burn(uint256 tokenId) internal {\n        _burn(ownerOf(tokenId), tokenId);\n    }\n\n    /**\n     * @dev Internal function to transfer ownership of a given token ID to another address.\n     * As opposed to transferFrom, this imposes no restrictions on msg.sender.\n     * @param from current owner of the token\n     * @param to address to receive the ownership of the given token ID\n     * @param tokenId uint256 ID of the token to be transferred\n     */\n    function _transferFrom(address from, address to, uint256 tokenId) internal {\n        require(ownerOf(tokenId) == from, \"ERC721: transfer of token that is not own\");\n        require(to != address(0), \"ERC721: transfer to the zero address\");\n\n        _clearApproval(tokenId);\n\n        _ownedTokensCount[from]--;\n        _ownedTokensCount[to]++;\n\n        _wizardsById[tokenId].owner = to;\n\n        emit Transfer(from, to, tokenId);\n    }\n\n    /**\n     * @dev Internal function to invoke `onERC721Received` on a target address\n     * The call is not executed if the target address is not a contract\n     * @param from address representing the previous owner of the given token ID\n     * @param to target address that will receive the tokens\n     * @param tokenId uint256 ID of the token to be transferred\n     * @param _data bytes optional data to send along with the call\n     * @return bool whether the call correctly returned the expected magic value\n     */\n    function _checkOnERC721Received(address from, address to, uint256 tokenId, bytes memory _data)\n        internal returns (bool)\n    {\n        if (!isContract(to)) {\n            return true;\n        }\n\n        bytes4 retval = IERC721Receiver(to).onERC721Received(msg.sender, from, tokenId, _data);\n        return (retval == _ERC721_RECEIVED);\n    }\n\n    /**\n     * @dev Private function to clear current approval of a given token ID\n     * @param tokenId uint256 ID of the token to be transferred\n     */\n    function _clearApproval(uint256 tokenId) private {\n        if (_tokenApprovals[tokenId] != address(0)) {\n            _tokenApprovals[tokenId] = address(0);\n        }\n    }\n}\n\n\n\n\n/// @title WizardPresaleInterface\n/// @notice This interface represents the single method that the final tournament and master Wizard contracts\n///         will use to import the presale wizards when those contracts have been finalized a released on\n///         mainnet. Once all presale Wizards have been absorbed, this temporary pre-sale contract can be\n///         destroyed.\ncontract WizardPresaleInterface {\n\n    // See https://github.com/ethereum/EIPs/blob/master/EIPS/eip-165.md on how\n    // to calculate this\n    bytes4 public constant _INTERFACE_ID_WIZARDPRESALE = 0x4df71efb;\n\n    /// @notice This function is used to bring a presale Wizard into the final contracts. It can\n    ///         ONLY be called by the official gatekeeper contract (as set by the Owner of the presale\n    ///         contract). It does a number of things:\n    ///            1. Check that the presale Wizard exists, and has not already been absorbed\n    ///            2. Transfer the Eth used to create the presale Wizard to the caller\n    ///            3. Mark the Wizard as having been absorbed, reclaiming the storage used by the presale info\n    ///            4. Return the Wizard information (its owner, minting price, and elemental alignment)\n    /// @param id the id of the presale Wizard to be absorbed\n    function absorbWizard(uint256 id) external returns (address owner, uint256 power, uint8 affinity);\n\n    /// @notice A convenience function that allows multiple Wizards to be moved to the final contracts\n    ///         simultaneously, works the same as the previous function, but in a batch.\n    /// @param ids An array of ids indicating which presale Wizards are to be absorbed\n    function absorbWizardMulti(uint256[] calldata ids) external\n        returns (address[] memory owners, uint256[] memory powers, uint8[] memory affinities);\n\n    function powerToCost(uint256 power) public pure returns (uint256 cost);\n    function costToPower(uint256 cost) public pure returns (uint256 power);\n}\n\n\n\n/// @title WizardPresale - Making Cheeze Wizards available for sale!\n/// @notice Allows for the creation and sale of Cheeze Wizards before the final tournament\n///         contract has been reviewed and released on mainnet. There are three main types\n///         of Wizards that are managed by this contract:\n///          - Neutral Wizards: Available in unlimited quantities and all have the same\n///             innate power. Don't have a natural affinity for any particular elemental\n///             spell... or the corresponding weakness!\n///          - Elemental Wizards: Available in unlimited quantities, but with a steadily increasing\n///             power; the power of an Elemental Wizard is always _slightly_ higher than the power\n///             of the previously created Elemental Wizard. Each Elemental Wizard has an Elemental\n///             Affinity that gives it a power multiplier when using the associated spell, but also\n///             gives it a weakness for the opposing element.\n///          - Exclusive Wizards: Only available in VERY limited quantities, with a hard cap set at\n///             contract creation time. Exclusive Wizards can ONLY be created by the Guild Master\n///             address (the address that created this contract), and are assigned the first N\n///             Wizard IDs, starting with 1 (where N is the hard cap on Exclusive Wizards). The first\n///             non-exclusive Wizard is assigned the ID N+1. Exclusive Wizards have no starting\n///             affinity, and their owners much choose an affinity before they can be entered into a\n///             Battle. The affinity CAN NOT CHANGE once it has been selected. The power of Exclusive\n///             Wizards is not set by the Guild Master and is not required to follow any pattern (although\n///             it can't be lower than the power of Neutral Wizards).\ncontract WizardPresale is WizardPresaleNFT, WizardPresaleInterface, WizardConstants {\n\n    /// @dev The ratio between the cost of a Wizard (in wei) and the power of the wizard.\n    ///      power = cost / POWER_SCALE\n    ///      cost = power * POWER_SCALE\n    uint256 private constant POWER_SCALE = 1000;\n\n    /// @dev The unit conversion for tenths of basis points\n    uint256 private constant TENTH_BASIS_POINTS = 100000;\n\n    /// @dev The address used to create this smart contract, has permission to conjure Exclusive Wizards,\n    ///      set the gatekeeper address, and destroy this contract once the sale is finished and all Presale\n    ///      Wizards have been absorbed into the main contracts.\n    address payable public guildmaster;\n\n    /// @dev The start block and duration (in blocks) of the sale.\n    ///      ACT NOW! For a limited time only!\n    uint256 public saleStartBlock;\n    uint256 public saleDuration;\n\n    /// @dev The cost of Neutral Wizards (in wei).\n    uint256 public neutralWizardCost;\n\n    /// @dev The cost of the _next_ Elemental Wizard (in wei); increases with each Elemental Wizard sold\n    uint256 public elementalWizardCost;\n\n    /// @dev The increment ratio in price between sequential Elemental Wizards, multiplied by 100k for\n    ///      greater granularity (0 == 0% increase, 100000 == 100% increase, 100 = 0.1% increase, etc.)\n    ///      NOTE: This is NOT percentage points, or basis points. It's tenths of a basis point.\n    uint256 public elementalWizardIncrement;\n\n    /// @dev The hard cap on how many Exclusive Wizards can be created\n    uint256 public maxExclusives;\n\n    /// @dev The ID number of the next Wizard to be created (Neutral or Elemental)\n    uint256 public nextWizardId;\n\n    /// @dev The address of the Gatekeeper for the tournament, initially set to address(0).\n    ///      To be set by the Guild Master when the final Tournament Contract is deployed on mainnet\n    address payable public gatekeeper;\n\n    /// @notice Emitted whenever the start of the sale changes.\n    event StartBlockChanged(uint256 oldStartBlock, uint256 newStartBlock);\n\n    /// @param startingCost The minimum cost of a Wizard, used as the price for all Neutral Wizards, and the\n    ///        cost of the first Elemental Wizard. Also used as a minimum value for Exclusive Wizards.\n    /// @param costIncremement The rate (in tenths of a basis point) at which the price of Elemental Wizards increases\n    /// @param exclusiveCount The hard cap on Exclusive Wizards, also dictates the ID of the first non-Exclusive\n    /// @param startBlock The starting block of the presale.\n    /// @param duration The duration of the presale.  Not changeable!\n    constructor(uint128 startingCost,\n            uint16 costIncremement,\n            uint256 exclusiveCount,\n            uint128 startBlock,\n            uint128 duration) public\n    {\n        require(startBlock > block.number, \"Start must be greater than current block\");\n\n        guildmaster = msg.sender;\n        saleStartBlock = startBlock;\n        saleDuration = duration;\n        neutralWizardCost = startingCost;\n        elementalWizardCost = startingCost;\n        elementalWizardIncrement = costIncremement;\n        maxExclusives = exclusiveCount;\n        nextWizardId = exclusiveCount + 1;\n\n        _registerInterface(_INTERFACE_ID_WIZARDPRESALE);\n    }\n\n    /// @dev Throws if called by any account other than the gatekeeper.\n    modifier onlyGatekeeper() {\n        require(msg.sender == gatekeeper, \"Must be gatekeeper\");\n        _;\n    }\n\n    /// @dev Throws if called by any account other than the guildmaster.\n    modifier onlyGuildmaster() {\n        require(msg.sender == guildmaster, \"Must be guildmaster\");\n        _;\n    }\n\n    /// @dev Checks to see that the current block number is within the range\n    ///      [saleStartBlock, saleStartBlock + saleDuraction) indicating that the sale\n    ///      is currently active\n    modifier onlyDuringSale() {\n        // The addtion of start and duration can't overflow since they can only be set from\n        // 128-bit arguments.\n        require(block.number >= saleStartBlock, \"Sale not open yet\");\n        require(block.number < saleStartBlock + saleDuration, \"Sale closed\");\n        _;\n    }\n\n    /// @dev Sets the address of the Gatekeeper contract once the final Tournament contract is live.\n    ///      Can only be set once.\n    /// @param gc The gatekeeper address to set\n    function setGatekeeper(address payable gc) external onlyGuildmaster {\n        require(gatekeeper == address(0) && gc != address(0), \"Can only set once and must not be 0\");\n        gatekeeper = gc;\n    }\n\n    /// @dev Updates the start block of the sale. The sale can only be postponed; it can't be made earlier.\n    /// @param newStart the new start block.\n    function postponeSale(uint128 newStart) external onlyGuildmaster {\n        require(block.number < saleStartBlock, \"Sale start time only adjustable before previous start time\");\n        require(newStart > saleStartBlock, \"New start time must be later than previous start time\");\n\n        emit StartBlockChanged(saleStartBlock, newStart);\n\n        saleStartBlock = newStart;\n    }\n\n    /// @dev Returns true iff the sale is currently active\n    function isDuringSale() external view returns (bool) {\n        return (block.number >= saleStartBlock && block.number < saleStartBlock + saleDuration);\n    }\n\n    /// @dev Convenience method for getting a presale wizard's data\n    /// @param id The wizard id\n    function getWizard(uint256 id) public view returns (address owner, uint88 power, uint8 affinity) {\n        Wizard memory wizard = _wizardsById[id];\n        (owner, power, affinity) = (wizard.owner, wizard.power, wizard.affinity);\n        require(wizard.owner != address(0), \"Wizard does not exist\");\n    }\n\n    /// @param cost The price of the wizard in wei\n    /// @return The power of the wizard (left as uint256)\n    function costToPower(uint256 cost) public pure returns (uint256 power) {\n        return cost / POWER_SCALE;\n    }\n\n    /// @param power The power of the wizard\n    /// @return The cost of the wizard in wei\n    function powerToCost(uint256 power) public pure returns (uint256 cost) {\n        return power * POWER_SCALE;\n    }\n\n    /// @notice This function is used to bring a presale Wizard into the final contracts. It can\n    ///         ONLY be called by the official gatekeeper contract (as set by the Owner of the presale\n    ///         contract). It does a number of things:\n    ///            1. Check that the presale Wizard exists, and has not already been absorbed\n    ///            2. Transfer the Eth used to create the presale Wizard to the caller\n    ///            3. Mark the Wizard as having been absorbed, reclaiming the storage used by the presale info\n    ///            4. Return the Wizard information (its owner, minting price, and elemental alignment)\n    /// @param id the id of the presale Wizard to be absorbed\n    function absorbWizard(uint256 id) external onlyGatekeeper returns (address owner, uint256 power, uint8 affinity) {\n        (owner, power, affinity) = getWizard(id);\n\n        // Free up the storage used by this wizard\n        _burn(owner, id);\n\n        // send the price paid to the gatekeeper to be used in the tournament prize pool\n        msg.sender.transfer(powerToCost(power));\n    }\n\n    /// @notice A convenience function that allows multiple Wizards to be moved to the final contracts\n    ///         simultaneously, works the same as the previous function, but in a batch.\n    /// @param ids An array of ids indicating which presale Wizards are to be absorbed\n    function absorbWizardMulti(uint256[] calldata ids) external onlyGatekeeper\n            returns (address[] memory owners, uint256[] memory powers, uint8[] memory affinities)\n    {\n        // allocate arrays\n        owners = new address[](ids.length);\n        powers = new uint256[](ids.length);\n        affinities = new uint8[](ids.length);\n\n        // The total eth to send (sent in a batch to save gas)\n        uint256 totalTransfer;\n\n        // Put the data for each Wizard into the returned arrays\n        for (uint256 i = 0; i < ids.length; i++) {\n            (owners[i], powers[i], affinities[i]) = getWizard(ids[i]);\n\n            // Free up the storage used by this wizard\n            _burn(owners[i], ids[i]);\n\n            // add the amount to transfer\n            totalTransfer += powerToCost(powers[i]);\n        }\n\n        // Send all the eth together\n        msg.sender.transfer(totalTransfer);\n    }\n\n    /// @dev Internal function to create a new Wizard; reverts if the Wizard ID is taken.\n    ///      NOTE: This function heavily depends on the internal format of the Wizard struct\n    ///      and should always be reassessed if anything about that structure changes.\n    /// @param tokenId ID of the new Wizard\n    /// @param owner The address that will own the newly conjured Wizard\n    /// @param power The power level associated with the new Wizard\n    /// @param affinity The elemental affinity of the new Wizard\n    function _createWizard(uint256 tokenId, address owner, uint256 power, uint8 affinity) internal {\n        require(!_exists(tokenId), \"Can't reuse Wizard ID\");\n        require(owner != address(0), \"Owner address must exist\");\n        require(power > 0, \"Wizard power must be non-0\");\n        require(power < (1<<88), \"Wizard power must fit in 88 bits of storage\");\n        require(affinity <= MAX_ELEMENT, \"Invalid elemental affinity\");\n\n        // Create the Wizard!\n        _wizardsById[tokenId] = Wizard(affinity, uint88(power), owner);\n        _ownedTokensCount[owner]++;\n\n        // Tell the world!\n        emit Transfer(address(0), owner, tokenId);\n        emit WizardSummoned(tokenId, affinity, power);\n    }\n\n    /// @dev A private utility function that refunds any overpayment to the sender; smart\n    ///      enough to only send the excess if the amount we are returning is more than the\n    ///      cost of sending it!\n    /// @dev Warning! This does not check for underflows (msg.value < actualPrice) - so\n    ///      be sure to call this with correct values!\n    /// @param actualPrice the actual price owed\n    function _transferRefund(uint256 actualPrice) private {\n        uint256 refund = msg.value - actualPrice;\n\n        // Make sure the amount we're trying to refund is less than the actual cost of sending it!\n        // See https://github.com/ethereum/wiki/wiki/Subtleties for magic values costs.  We can\n        // safley ignore the 25000 additional gas cost for new accounts, as msg.sender is\n        // guarunteed to exist at this point!\n        if (refund > (tx.gasprice * (9000+700))) {\n            msg.sender.transfer(refund);\n        }\n    }\n\n    /// @notice Conjures an Exclusive Wizard with a specific element and ID. This can only be done by\n    ///         the Guildmaster, who still has to pay for the power imbued in that Wizard! The power level\n    ///         is inferred by the amount of Eth sent. MUST ONLY BE USED FOR EXTERNAL OWNER ADDRESSES.\n    /// @param id The ID of the new Wizard; must be in the Exclusive range, and can't already be allocated\n    /// @param owner The address which will own the new Wizard\n    /// @param affinity The elemental affinity of the new Wizard, can be ELEMENT_NOTSET for Exclusives!\n    function conjureExclusiveWizard(uint256 id, address owner, uint8 affinity) public payable onlyGuildmaster {\n        require(id > 0 && id <= maxExclusives, \"Invalid exclusive ID\");\n        _createWizard(id, owner, costToPower(msg.value), affinity);\n    }\n\n    /// @notice Same as conjureExclusiveWizard(), but reverts if the owner address is a smart\n    ///         contract that is not ERC-721 aware.\n    /// @param id The ID of the new Wizard; must be in the Exclusive range, and can't already be allocated\n    /// @param owner The address which will own the new Wizard\n    /// @param affinity The elemental affinity of the new Wizard, can be ELEMENT_NOTSET for Exclusives!\n    function safeConjureExclusiveWizard(uint256 id, address owner, uint8 affinity) external payable onlyGuildmaster {\n        conjureExclusiveWizard(id, owner, affinity);\n        require(_checkOnERC721Received(address(0), owner, id, \"\"), \"Must support erc721\");\n    }\n\n    /// @notice Allows for the batch creation of Exclusive Wizards. Same rules apply as above, but the\n    ///         powers are specified instead of being inferred. The message still needs to have enough\n    ///         value to pay for all the newly conjured Wizards!  MUST ONLY BE USED FOR EXTERNAL OWNER ADDRESSES.\n    /// @param ids An array of IDs of the new Wizards\n    /// @param owners An array of owners\n    /// @param powers An array of power levels\n    /// @param affinities An array of elemental affinities\n    function conjureExclusiveWizardMulti(\n        uint256[] calldata ids,\n        address[] calldata owners,\n        uint256[] calldata powers,\n        uint8[] calldata affinities) external payable onlyGuildmaster\n    {\n        // Ensure the arrays are all of the same length\n        require(\n            ids.length == owners.length &&\n            owners.length == powers.length &&\n            owners.length == affinities.length,\n            \"Must have equal array lengths\"\n        );\n\n        uint256 totalPower = 0;\n\n        for (uint256 i = 0; i < ids.length; i++) {\n            require(ids[i] > 0 && ids[i] <= maxExclusives, \"Invalid exclusive ID\");\n            require(affinities[i] <= MAX_ELEMENT, \"Must choose a valid elemental affinity\");\n\n            _createWizard(ids[i], owners[i], powers[i], affinities[i]);\n\n            totalPower += powers[i];\n        }\n\n        // Ensure that the message includes enough eth to cover the total power of all Wizards\n        // If this check fails, all the Wizards that we just created will be deleted, and we'll just\n        // have wasted a bunch of gas. Don't be dumb, Guildmaster!\n        // If the guildMaster has managed to overflow totalPower, well done!\n        require(powerToCost(totalPower) <= msg.value, \"Must pay for power in all Wizards\");\n\n        // We don't return \"change\" if the caller overpays, because the caller is the Guildmaster and\n        // shouldn't be dumb like that. How many times do I have to say it? Don't be dumb, Guildmaster!\n    }\n\n    /// @notice Sets the affinity for a Wizard that doesn't already have its elemental affinity chosen.\n    ///         Only usable for Exclusive Wizards (all non-Exclusives must have their affinity chosen when\n    ///         conjured.) Even Exclusives can't change their affinity once it's been chosen.\n    /// @param wizardId The id of the wizard\n    /// @param newAffinity The new affinity of the wizard\n    function setAffinity(uint256 wizardId, uint8 newAffinity) external {\n        require(newAffinity > ELEMENT_NOTSET && newAffinity <= MAX_ELEMENT, \"Must choose a valid affinity\");\n        (address owner, , uint8 affinity) = getWizard(wizardId);\n        require(msg.sender == owner, \"Affinity can only be set by owner\");\n        require(affinity == ELEMENT_NOTSET, \"Affinity can only be chosen once\");\n\n        _wizardsById[wizardId].affinity = newAffinity;\n\n        // Tell the world this wizards now has an affinity!\n        emit WizardAlignmentAssigned(wizardId, newAffinity);\n    }\n\n    /// @dev An internal convenience function used by conjureWizard and conjureWizardMulti that takes care\n    ///      of the work that is shared between them.\n    ///      The use of tempElementalWizardCost and updatedElementalWizardCost deserves some explanation here.\n    ///      Using elementalWizardCost directly would be very expensive in the case where this function is\n    ///      called repeatedly by conjureWizardMulti. Buying an elemental wizard would update the elementalWizardCost\n    ///      each time through this function _which would cost 5000 gas each time_. Of course, we don't actually\n    ///      need to store the new value each time, only once at the very end. So we go through this very annoying\n    ///      process of passing the elementalWizardCost in as an argument (tempElementalWizardCost) and returning\n    ///      the updated value as a return value (updatedElementalWizardCost). It's enough to make one want\n    ///      tear one's hair out. But! What's done is done, and hopefully SOMEONE will realize how much trouble\n    ///      we went to to save them _just that little bit_ of gas cost when they decided to buy a schwack of\n    ///      Wizards.\n    function _conjureWizard(\n        uint256 wizardId,\n        address owner,\n        uint8 affinity,\n        uint256 tempElementalWizardCost) private\n        returns (uint256 wizardCost, uint256 updatedElementalWizardCost)\n    {\n        // Check for a valid elemental affinity\n        require(affinity > ELEMENT_NOTSET && affinity <= MAX_ELEMENT, \"Non-exclusive Wizards need a real affinity\");\n\n        updatedElementalWizardCost = tempElementalWizardCost;\n\n        // Determine the price\n        if (affinity == ELEMENT_NEUTRAL) {\n            wizardCost = neutralWizardCost;\n        } else {\n            wizardCost = updatedElementalWizardCost;\n\n            // Update the elemental Wizard cost\n            // NOTE: This math can't overflow because the total Ether supply in wei is well less than\n            //       2^128. Multiplying a price in wei by some number <100k can't possibly overflow 256 bits.\n            updatedElementalWizardCost += (updatedElementalWizardCost * elementalWizardIncrement) / TENTH_BASIS_POINTS;\n        }\n\n        // Bring the new Wizard into existence!\n        _createWizard(wizardId, owner, costToPower(wizardCost), affinity);\n    }\n\n    /// @notice This is it folks, the main event! The way for the world to get new Wizards! Does\n    ///         pretty much what it says on the box: Let's you conjure a new Wizard with a specified\n    ///         elemental affinity. The call must include enough eth to cover the cost of the new\n    ///         Wizard, and any excess is refunded. The power of the Wizard is derived from\n    ///         the sale price. YOU CAN NOT PAY EXTRA TO GET MORE POWER. (But you always have the option\n    ///         to conjure some more Wizards!) Returns the ID of the newly conjured Wizard.\n    /// @param affinity The elemental affinity you want for your wizard.\n    function conjureWizard(uint8 affinity) external payable onlyDuringSale returns (uint256 wizardId) {\n\n        wizardId = nextWizardId;\n        nextWizardId++;\n\n        uint256 wizardCost;\n\n        (wizardCost, elementalWizardCost) = _conjureWizard(wizardId, msg.sender, affinity, elementalWizardCost);\n\n        require(msg.value >= wizardCost, \"Not enough eth to pay\");\n\n         // Refund any overpayment\n        _transferRefund(wizardCost);\n\n        // Ensure the Wizard is being assigned to an ERC-721 aware address (either an external address,\n        // or a smart contract that implements onERC721Reived())\n        require(_checkOnERC721Received(address(0), msg.sender, wizardId, \"\"), \"Must support erc721\");\n    }\n\n    /// @notice A convenience function that allows you to get a whole bunch of Wizards at once! You know how\n    ///         there's \"a pride of lions\", \"a murder of crows\", and \"a parliament of owls\"? Well, with this\n    ///         here function you can conjure yourself \"a stench of Cheeze Wizards\"!\n    /// @dev This function is careful to bundle all of the external calls (the refund and onERC721Received)\n    ///         at the end of the function to limit the risk of reentrancy attacks.\n    /// @param affinities the elements of the wizards\n    function conjureWizardMulti(uint8[] calldata affinities) external payable onlyDuringSale\n            returns (uint256[] memory wizardIds)\n    {\n        // allocate result array\n        wizardIds = new uint256[](affinities.length);\n\n        uint256 totalCost = 0;\n\n        // We take these two storage variables, and turn them into local variables for the course\n        // of this loop to save about 10k gas per wizard. It's kind of ugly, but that's a lot of\n        // gas! Won't somebody please think of the children!!\n        uint256 tempWizardId = nextWizardId;\n        uint256 tempElementalWizardCost = elementalWizardCost;\n\n        for (uint256 i = 0; i < affinities.length; i++) {\n            wizardIds[i] = tempWizardId;\n            tempWizardId++;\n\n            uint256 wizardCost;\n\n            (wizardCost, tempElementalWizardCost) = _conjureWizard(\n                wizardIds[i],\n                msg.sender,\n                affinities[i],\n                tempElementalWizardCost);\n\n            totalCost += wizardCost;\n        }\n\n        elementalWizardCost = tempElementalWizardCost;\n        nextWizardId = tempWizardId;\n\n        // check to see if there's enough eth\n        require(msg.value >= totalCost, \"Not enough eth to pay\");\n\n        // Ensure the Wizard is being assigned to an ERC-721 aware address (either an external address,\n        // or a smart contract that implements onERC721Received()). We unwind the logic of _checkOnERC721Received\n        // because called address.isContract() every time through this loop can get reasonably expensive. We do\n        // need to call this function for each token created, however, because it's allowed for an ERC-721 receiving\n        // contract to reject the transfer based on the properties of the token.\n        if (isContract(msg.sender)) {\n            for (uint256 i = 0; i < wizardIds.length; i++) {\n                bytes4 retval = IERC721Receiver(msg.sender).onERC721Received(msg.sender, address(0), wizardIds[i], \"\");\n                require(retval == _ERC721_RECEIVED, \"Contract owner didn't accept ERC721 transfer\");\n            }\n        }\n\n        // Refund any excess funds\n        _transferRefund(totalCost);\n    }\n\n    /// @dev Transfers the current balance to the owner and terminates the contract.\n    function destroy() external onlyGuildmaster {\n        selfdestruct(guildmaster);\n    }\n}\n",
  "sourcePath": "/home/john/All_Code/Hackathons/CheeseWizards/CWcontracts/contracts/WizardPresale.sol",
  "compiler": {
    "name": "solc",
    "version": "0.5.6+commit.b259423e.Emscripten.clang"
  },
  "schemaVersion": "3.0.5",
  "updatedAt": "2019-08-21T19:00:55.719Z",
  "devdoc": {
    "methods": {
      "absorbWizard(uint256)": {
        "params": {
          "id": "the id of the presale Wizard to be absorbed"
        }
      },
      "absorbWizardMulti(uint256[])": {
        "params": {
          "ids": "An array of ids indicating which presale Wizards are to be absorbed"
        }
      },
      "approve(address,uint256)": {
        "details": "Approves another address to transfer the given token ID The zero address indicates there is no approved address. There can only be one approved address per token at a given time. Can only be called by the token owner or an approved operator.",
        "params": {
          "to": "address to be approved for the given token ID",
          "tokenId": "uint256 ID of the token to be approved"
        }
      },
      "balanceOf(address)": {
        "details": "Gets the balance of the specified address",
        "params": {
          "owner": "address to query the balance of"
        },
        "return": "uint256 representing the amount owned by the passed address"
      },
      "conjureExclusiveWizard(uint256,address,uint8)": {
        "params": {
          "affinity": "The elemental affinity of the new Wizard, can be ELEMENT_NOTSET for Exclusives!",
          "id": "The ID of the new Wizard; must be in the Exclusive range, and can't already be allocated",
          "owner": "The address which will own the new Wizard"
        }
      },
      "conjureExclusiveWizardMulti(uint256[],address[],uint256[],uint8[])": {
        "params": {
          "affinities": "An array of elemental affinities",
          "ids": "An array of IDs of the new Wizards",
          "owners": "An array of owners",
          "powers": "An array of power levels"
        }
      },
      "conjureWizard(uint8)": {
        "params": {
          "affinity": "The elemental affinity you want for your wizard."
        }
      },
      "conjureWizardMulti(uint8[])": {
        "details": "This function is careful to bundle all of the external calls (the refund and onERC721Received)         at the end of the function to limit the risk of reentrancy attacks.",
        "params": {
          "affinities": "the elements of the wizards"
        }
      },
      "constructor": {
        "params": {
          "costIncremement": "The rate (in tenths of a basis point) at which the price of Elemental Wizards increases",
          "duration": "The duration of the presale.  Not changeable!",
          "exclusiveCount": "The hard cap on Exclusive Wizards, also dictates the ID of the first non-Exclusive",
          "startBlock": "The starting block of the presale.",
          "startingCost": "The minimum cost of a Wizard, used as the price for all Neutral Wizards, and the        cost of the first Elemental Wizard. Also used as a minimum value for Exclusive Wizards."
        }
      },
      "costToPower(uint256)": {
        "params": {
          "cost": "The price of the wizard in wei"
        },
        "return": "The power of the wizard (left as uint256)"
      },
      "destroy()": {
        "details": "Transfers the current balance to the owner and terminates the contract."
      },
      "getApproved(uint256)": {
        "details": "Gets the approved address for a token ID, or zero if no address set Reverts if the token ID does not exist.",
        "params": {
          "tokenId": "uint256 ID of the token to query the approval of"
        },
        "return": "address currently approved for the given token ID"
      },
      "getWizard(uint256)": {
        "details": "Convenience method for getting a presale wizard's data",
        "params": {
          "id": "The wizard id"
        }
      },
      "isApprovedForAll(address,address)": {
        "details": "Tells whether an operator is approved by a given owner",
        "params": {
          "operator": "operator address which you want to query the approval of",
          "owner": "owner address which you want to query the approval of"
        },
        "return": "bool whether the given operator is approved by the given owner"
      },
      "isDuringSale()": {
        "details": "Returns true iff the sale is currently active"
      },
      "ownerOf(uint256)": {
        "details": "Gets the owner of the specified token ID",
        "params": {
          "tokenId": "uint256 ID of the token to query the owner of"
        },
        "return": "address currently marked as the owner of the given token ID"
      },
      "postponeSale(uint128)": {
        "details": "Updates the start block of the sale. The sale can only be postponed; it can't be made earlier.",
        "params": {
          "newStart": "the new start block."
        }
      },
      "powerToCost(uint256)": {
        "params": {
          "power": "The power of the wizard"
        },
        "return": "The cost of the wizard in wei"
      },
      "safeConjureExclusiveWizard(uint256,address,uint8)": {
        "params": {
          "affinity": "The elemental affinity of the new Wizard, can be ELEMENT_NOTSET for Exclusives!",
          "id": "The ID of the new Wizard; must be in the Exclusive range, and can't already be allocated",
          "owner": "The address which will own the new Wizard"
        }
      },
      "safeTransferFrom(address,address,uint256)": {
        "details": "Safely transfers the ownership of a given token ID to another address If the target address is a contract, it must implement `onERC721Received`, which is called upon a safe transfer, and return the magic value `bytes4(keccak256(\"onERC721Received(address,address,uint256,bytes)\"))`; otherwise, the transfer is reverted. Requires the msg.sender to be the owner, approved, or operator",
        "params": {
          "from": "current owner of the token",
          "to": "address to receive the ownership of the given token ID",
          "tokenId": "uint256 ID of the token to be transferred"
        }
      },
      "safeTransferFrom(address,address,uint256,bytes)": {
        "details": "Safely transfers the ownership of a given token ID to another address If the target address is a contract, it must implement `onERC721Received`, which is called upon a safe transfer, and return the magic value `bytes4(keccak256(\"onERC721Received(address,address,uint256,bytes)\"))`; otherwise, the transfer is reverted. Requires the msg.sender to be the owner, approved, or operator",
        "params": {
          "_data": "bytes data to send along with a safe transfer check",
          "from": "current owner of the token",
          "to": "address to receive the ownership of the given token ID",
          "tokenId": "uint256 ID of the token to be transferred"
        }
      },
      "setAffinity(uint256,uint8)": {
        "params": {
          "newAffinity": "The new affinity of the wizard",
          "wizardId": "The id of the wizard"
        }
      },
      "setApprovalForAll(address,bool)": {
        "details": "Sets or unsets the approval of a given operator An operator is allowed to transfer all tokens of the sender on their behalf",
        "params": {
          "approved": "representing the status of the approval to be set",
          "to": "operator address to set the approval"
        }
      },
      "setGatekeeper(address)": {
        "details": "Sets the address of the Gatekeeper contract once the final Tournament contract is live.      Can only be set once.",
        "params": {
          "gc": "The gatekeeper address to set"
        }
      },
      "supportsInterface(bytes4)": {
        "details": "implement supportsInterface(bytes4) using a lookup table"
      },
      "transferFrom(address,address,uint256)": {
        "details": "Transfers the ownership of a given token ID to another address Usage of this method is discouraged, use `safeTransferFrom` whenever possible Requires the msg.sender to be the owner, approved, or operator",
        "params": {
          "from": "current owner of the token",
          "to": "address to receive the ownership of the given token ID",
          "tokenId": "uint256 ID of the token to be transferred"
        }
      }
    },
    "title": "WizardPresale - Making Cheeze Wizards available for sale!"
  },
  "userdoc": {
    "methods": {
      "absorbWizard(uint256)": {
        "notice": "This function is used to bring a presale Wizard into the final contracts. It can         ONLY be called by the official gatekeeper contract (as set by the Owner of the presale         contract). It does a number of things:            1. Check that the presale Wizard exists, and has not already been absorbed            2. Transfer the Eth used to create the presale Wizard to the caller            3. Mark the Wizard as having been absorbed, reclaiming the storage used by the presale info            4. Return the Wizard information (its owner, minting price, and elemental alignment)"
      },
      "absorbWizardMulti(uint256[])": {
        "notice": "A convenience function that allows multiple Wizards to be moved to the final contracts         simultaneously, works the same as the previous function, but in a batch."
      },
      "conjureExclusiveWizard(uint256,address,uint8)": {
        "notice": "Conjures an Exclusive Wizard with a specific element and ID. This can only be done by         the Guildmaster, who still has to pay for the power imbued in that Wizard! The power level         is inferred by the amount of Eth sent. MUST ONLY BE USED FOR EXTERNAL OWNER ADDRESSES."
      },
      "conjureExclusiveWizardMulti(uint256[],address[],uint256[],uint8[])": {
        "notice": "Allows for the batch creation of Exclusive Wizards. Same rules apply as above, but the         powers are specified instead of being inferred. The message still needs to have enough         value to pay for all the newly conjured Wizards!  MUST ONLY BE USED FOR EXTERNAL OWNER ADDRESSES."
      },
      "conjureWizard(uint8)": {
        "notice": "This is it folks, the main event! The way for the world to get new Wizards! Does         pretty much what it says on the box: Let's you conjure a new Wizard with a specified         elemental affinity. The call must include enough eth to cover the cost of the new         Wizard, and any excess is refunded. The power of the Wizard is derived from         the sale price. YOU CAN NOT PAY EXTRA TO GET MORE POWER. (But you always have the option         to conjure some more Wizards!) Returns the ID of the newly conjured Wizard."
      },
      "conjureWizardMulti(uint8[])": {
        "notice": "A convenience function that allows you to get a whole bunch of Wizards at once! You know how         there's \"a pride of lions\", \"a murder of crows\", and \"a parliament of owls\"? Well, with this         here function you can conjure yourself \"a stench of Cheeze Wizards\"!"
      },
      "safeConjureExclusiveWizard(uint256,address,uint8)": {
        "notice": "Same as conjureExclusiveWizard(), but reverts if the owner address is a smart         contract that is not ERC-721 aware."
      },
      "setAffinity(uint256,uint8)": {
        "notice": "Sets the affinity for a Wizard that doesn't already have its elemental affinity chosen.         Only usable for Exclusive Wizards (all non-Exclusives must have their affinity chosen when         conjured.) Even Exclusives can't change their affinity once it's been chosen."
      }
    },
    "notice": "Allows for the creation and sale of Cheeze Wizards before the final tournament         contract has been reviewed and released on mainnet. There are three main types         of Wizards that are managed by this contract:          - Neutral Wizards: Available in unlimited quantities and all have the same             innate power. Don't have a natural affinity for any particular elemental             spell... or the corresponding weakness!          - Elemental Wizards: Available in unlimited quantities, but with a steadily increasing             power; the power of an Elemental Wizard is always _slightly_ higher than the power             of the previously created Elemental Wizard. Each Elemental Wizard has an Elemental             Affinity that gives it a power multiplier when using the associated spell, but also             gives it a weakness for the opposing element.          - Exclusive Wizards: Only available in VERY limited quantities, with a hard cap set at             contract creation time. Exclusive Wizards can ONLY be created by the Guild Master             address (the address that created this contract), and are assigned the first N             Wizard IDs, starting with 1 (where N is the hard cap on Exclusive Wizards). The first             non-exclusive Wizard is assigned the ID N+1. Exclusive Wizards have no starting             affinity, and their owners much choose an affinity before they can be entered into a             Battle. The affinity CAN NOT CHANGE once it has been selected. The power of Exclusive             Wizards is not set by the Guild Master and is not required to follow any pattern (although             it can't be lower than the power of Neutral Wizards)."
  }
}